:020000040800F2
:1000000000280020851E0008151E00081B1E000881
:10001000211E0008271E00082D1E000800000000F9
:10002000000000000000000000000000331E000877
:100030003F1E0008000000004B1E0008571E00086D
:10004000CD1E0008CD1E0008CD1E0008CD1E0008E4
:10005000CD1E0008CD1E0008CD1E0008CD1E0008D4
:10006000CD1E0008CD1E0008CD1E0008CD1E0008C4
:10007000CD1E0008CD1E0008CD1E0008CD1E0008B4
:10008000CD1E0008CD1E0008CD1E0008CD1E0008A4
:10009000CD1E0008CD1E0008CD1E0008CD1E000894
:1000A000CD1E0008CD1E0008CD1E0008CD1E000884
:1000B000651E0008CD1E000800000000CD1E0008CF
:1000C000CD1E00080000000000000000CD1E00084A
:1000D00000000000CD1E0008CD1E0008000000003A
:1000E000CD1E0008CD1E0008CD1E00080000000037
:1000F0000000000000000000000000000000000000
:0C01000000000000000000005FF808F1A3
:1001100010B5054C237833B9044B13B10448AFF341
:1001200000800123237010BD30000020000000007B
:100130009C34000808B5034B1BB103490348AFF3D7
:10014000008008BD00000000340000209C3400083E
:1001500081F0004102E000BF83F0004330B54FEA78
:1001600041044FEA430594EA050F08BF90EA020FE5
:100170001FBF54EA000C55EA020C7FEA645C7FEA78
:10018000655C00F0E2804FEA5454D4EB5555B8BF9B
:100190006D420CDD2C4480EA020281EA030382EA0C
:1001A000000083EA010180EA020281EA0303362D9E
:1001B00088BF30BD11F0004F4FEA01314FF4801C71
:1001C0004CEA113102D0404261EB410113F0004F83
:1001D0004FEA03334CEA133302D0524263EB43033A
:1001E00094EA050F00F0A780A4F10104D5F1200ED8
:1001F0000DDB02FA0EFC22FA05F2801841F1000133
:1002000003FA0EF2801843FA05F359410EE0A5F106
:1002100020050EF1200E012A03FA0EFC28BF4CF037
:10022000020C43FA05F3C01851EBE37101F00045ED
:1002300007D54FF0000EDCF1000C7EEB00006EEBFA
:100240000101B1F5801F1BD3B1F5001F0CD3490884
:100250005FEA30004FEA3C0C04F101044FEA4452DB
:1002600012F5800F80F09A80BCF1004F08BF5FEA62
:10027000500C50F1000041EB045141EA050130BD42
:100280005FEA4C0C404141EB0101013C28BFB1F554
:10029000801FE9D291F0000F04BF01460020B1FA9F
:1002A00081F308BF2033A3F10B03B3F120020CDA72
:1002B0000C3208DD02F1140CC2F10C0201FA0CF050
:1002C00021FA02F10CE002F11402D8BFC2F1200CB5
:1002D00001FA02F120FA0CFCDCBF41EA0C0190406B
:1002E000E41AA2BF01EB0451294330BD6FEA0404B4
:1002F0001F3C1CDA0C340EDC04F11404C4F120029F
:1003000020FA04F001FA02F340EA030021FA04F3B0
:1003100045EA030130BDC4F10C04C4F1200220FA07
:1003200002F001FA04F340EA0300294630BD21FA45
:1003300004F0294630BD94F0000F83F4801306BF0B
:1003400081F480110134013D4EE77FEA645C18BFFF
:100350007FEA655C29D094EA050F08BF90EA020F96
:1003600005D054EA000C04BF1946104630BD91EA8E
:10037000030F1EBF0021002030BD5FEA545C05D191
:100380004000494128BF41F0004130BD14F58004D0
:100390003CBF01F5801130BD01F0004545F0FE4144
:1003A00041F470014FF0000030BD7FEA645C1ABF79
:1003B000194610467FEA655C1CBF0B46024650EAB0
:1003C000013406BF52EA033591EA030F41F40021DC
:1003D00030BD00BF90F0000F04BF0021704730B562
:1003E0004FF4806404F132044FF000054FF0000137
:1003F00050E700BF90F0000F04BF0021704730B5F8
:100400004FF4806404F1320410F0004548BF4042CC
:100410004FF000013EE700BF42004FEAE2014FEA21
:1004200031014FEA02701FBF12F07F4393F07F4FFC
:1004300081F06051704732F07F4208BF704793F0FF
:100440007F4F04BF41F40021704730B54FF4607412
:1004500001F0004521F000411CE700BF50EA010215
:1004600008BF704730B54FF000050AE050EA0102BE
:1004700008BF704730B511F0004502D5404261EB2E
:1004800041014FF4806404F132045FEA915C3FF46F
:10049000D8AE4FF003025FEADC0C18BF03325FEA0C
:1004A000DC0C18BF033202EBDC02C2F1200300FABD
:1004B00003FC20FA02F001FA03FE40EA0E0021FAE2
:1004C00002F11444BDE600BF70B54FF0FF0C4CF4D0
:1004D000E06C1CEA11541DBF1CEA135594EA0C0F82
:1004E00095EA0C0F00F0DEF82C4481EA030621EABD
:1004F0004C5123EA4C5350EA013518BF52EA0335F8
:1005000041F4801143F4801338D0A0FB02CE4FF0A9
:100510000005E1FB02E506F00042E0FB03E54FF0D9
:100520000006E1FB03569CF0000F18BF4EF0010ED1
:10053000A4F1FF04B6F5007F64F5407404D25FEACD
:100540004E0E6D4146EB060642EAC62141EA555180
:100550004FEAC52040EA5E504FEACE2EB4F1FD0CC2
:1005600088BFBCF5E06F1ED8BEF1004F08BF5FEA40
:10057000500E50F1000041EB045170BD06F00046F2
:1005800046EA010140EA020081EA0301B4EB5C049F
:10059000C2BFD4EB0C0541EA045170BD41F4801197
:1005A0004FF0000E013C00F3AB8014F1360FDEBFBC
:1005B000002001F0004170BDC4F10004203C35DA98
:1005C0000C341BDC04F11404C4F1200500FA05F31B
:1005D00020FA04F001FA05F240EA020001F00042BC
:1005E00021F0004110EBD37021FA04F642EB060132
:1005F0005EEA430E08BF20EAD37070BDC4F10C045C
:10060000C4F1200500FA04F320FA05F001FA04F21F
:1006100040EA020001F0004110EBD37041F100010B
:100620005EEA430E08BF20EAD37070BDC4F1200516
:1006300000FA05F24EEA020E20FA04F301FA05F27E
:1006400043EA020321FA04F001F0004121FA04F226
:1006500020EA020000EBD3705EEA430E08BF20EAF6
:10066000D37070BD94F0000F0FD101F00046400030
:1006700041EB010111F4801F08BF013CF7D041EAB2
:10068000060195F0000F18BF704703F000465200B6
:1006900043EB030313F4801F08BF013DF7D043EA87
:1006A0000603704794EA0C0F0CEA135518BF95EA3D
:1006B0000C0F0CD050EA410618BF52EA4306D1D1C4
:1006C00081EA030101F000414FF0000070BD50EAE3
:1006D000410606BF1046194652EA430619D094EA6D
:1006E0000C0F02D150EA013613D195EA0C0F05D157
:1006F00052EA03361CBF104619460AD181EA0301AB
:1007000001F0004141F0FE4141F470014FF0000062
:1007100070BD41F0FE4141F4780170BD70B54FF0FD
:10072000FF0C4CF4E06C1CEA11541DBF1CEA13557D
:1007300094EA0C0F95EA0C0F00F0A7F8A4EB05045F
:1007400081EA030E52EA03354FEA013100F0888056
:100750004FEA03334FF0805545EA131343EA12631F
:100760004FEA022245EA111545EA10654FEA0026D4
:100770000EF000419D4208BF964244F1FD0404F58D
:10078000407402D25B084FEA3202B61A65EB0305E9
:100790005B084FEA32024FF480104FF4002CB6EBA6
:1007A000020E75EB030E22BFB61A754640EA0C0026
:1007B0005B084FEA3202B6EB020E75EB030E22BF66
:1007C000B61A754640EA5C005B084FEA3202B6EBA7
:1007D000020E75EB030E22BFB61A754640EA9C0066
:1007E0005B084FEA3202B6EB020E75EB030E22BF36
:1007F000B61A754640EADC0055EA060E18D04FEAF4
:10080000051545EA16754FEA06164FEAC30343EA93
:1008100052734FEAC2025FEA1C1CC0D111F4801F60
:100820000BD141EA00014FF000004FF0004CB6E759
:1008300011F4801F04BF01430020B4F1FD0C88BFF8
:10084000BCF5E06F3FF6AFAEB5EB030C04BFB6EB03
:10085000020C5FEA500C50F1000041EB045170BDF6
:100860000EF0004E4EEA113114EB5C04C2BFD4EB23
:100870000C0541EA045170BD41F480114FF0000EA7
:10088000013C90E645EA060E8DE60CEA135594EA23
:100890000C0F08BF95EA0C0F3FF43BAF94EA0C0F26
:1008A0000AD150EA01347FF434AF95EA0C0F7FF49B
:1008B00025AF104619462CE795EA0C0F06D152EAEF
:1008C00003353FF4FDAE1046194622E750EA4106D3
:1008D00018BF52EA43067FF4C5AE50EA41047FF4E4
:1008E0000DAF52EA43057FF4EBAE12E74FEA410247
:1008F00012F5001215D211D56FF47873B3EB625272
:1009000012D94FEAC12343F0004343EA505311F098
:10091000004F23FA02F018BF404270474FF000002A
:10092000704750EA013005D111F0004008BF6FF068
:10093000004070474FF00000704700BF80B483B0A4
:1009400000AF7860064A7B6852F82330012B01D152
:10095000012300E0002318460C37BD4680BC7047D9
:100960004C00002080B483B000AF78603960094B40
:100970001B683A6892FBF3F207497B6841F8232031
:10098000064A7B68002142F8231000BF0C37BD46A1
:1009900080BC704768000020580000205C000020E8
:1009A00080B483B000AF00237B6017E0104A7B68FF
:1009B00052F82330002B09DD0D4A7B6852F82330B2
:1009C0005A1E0B497B6841F8232004E0094A7B68E2
:1009D000012142F823107B6801337B607B68042B84
:1009E000E4DD00BF00BF0C37BD4680BC704700BFD0
:1009F000580000205C00002080B483B000AF786015
:100A0000074A7B68002142F82310064A7B680021D0
:100A100042F8231000BF0C37BD4680BC704700BFB2
:100A20005C0000205800002080B582B000AF7860E4
:100A30007B68092B00F2808101A252F823F000BFED
:100A4000690A0008B10A0008F90A0008410B000809
:100A5000890B0008D10B0008190C0008610C000874
:100A6000A90C0008F10C000800220121B44801F093
:100A700019FD00220221B24801F014FD00220421D8
:100A8000AF4801F00FFD00220821AD4801F00AFD3A
:100A900000221021AA4801F005FD00222021A848CB
:100AA00001F000FD01224021A54801F0FBFC43E1DB
:100AB00001220121A24801F0F5FC00220221A048F8
:100AC00001F0F0FC002204219D4801F0EBFC012222
:100AD00008219B4801F0E6FC01221021984801F012
:100AE000E1FC01222021964801F0DCFC012240219A
:100AF000934801F0D7FC1FE100220121904801F04A
:100B0000D1FC002202218E4801F0CCFC01220421FC
:100B10008B4801F0C7FC00220821894801F0C2FC83
:100B200000221021864801F0BDFC012220218448CA
:100B300001F0B8FC00224021814801F0B3FCFBE049
:100B4000002201217E4801F0ADFC002202217C48F8
:100B500001F0A8FC00220421794801F0A3FC002246
:100B60000821774801F09EFC01221021744801F011
:100B700099FC01222021724801F094FC00224021BE
:100B80006F4801F08FFCD7E0012201216C4801F091
:100B900089FC002202216A4801F084FC0022042121
:100BA000674801F07FFC01220821654801F07AFCCA
:100BB00001221021624801F075FC002220216048CA
:100BC00001F070FC002240215D4801F06BFCB3E0B5
:100BD000002201215A4801F065FC012202215848F7
:100BE00001F060FC00220421554801F05BFC00226A
:100BF0000821534801F056FC01221021504801F011
:100C000051FC002220214E4801F04CFC00224021E2
:100C10004B4801F047FC8FE000220121484801F0D9
:100C200041FC01220221464801F03CFC0022042143
:100C3000434801F037FC00220821414801F032FC12
:100C4000002210213E4801F02DFC002220213C48CA
:100C500001F028FC00224021394801F023FC6BE020
:100C600000220121364801F01DFC002202213448F7
:100C700001F018FC00220421314801F013FC01228C
:100C800008212F4801F00EFC012210212C4801F010
:100C900009FC012220212A4801F004FC0122402104
:100CA000274801F0FFFB47E000220121244801F022
:100CB000F9FB00220221224801F0F4FB002204216A
:100CC0001F4801F0EFFB002208211D4801F0EAFB5C
:100CD000002210211A4801F0E5FB002220211848CB
:100CE00001F0E0FB00224021154801F0DBFB23E08E
:100CF00000220121124801F0D5FB002202211048F8
:100D000001F0D0FB002204210D4801F0CBFB0022B2
:100D100008210B4801F0C6FB01221021084801F010
:100D2000C1FB00222021064801F0BCFB002240212B
:100D3000034801F0B7FB00BF00BF0837BD4680BDC8
:100D4000000C014080B582B000AF7860454A7B68F6
:100D500052F823301846FFF767FE7B68032B7BD8D9
:100D600001A252F823F000BF790D0008B10D000870
:100D7000E90D0008210E00083B4B01221A600022F9
:100D80004FF48061394801F08DFB01224FF400617E
:100D9000364801F087FB01224FF48051334801F0BF
:100DA00081FB01224FF40051304801F07BFB54E0FD
:100DB0002D4B02221A6001224FF480612B4801F072
:100DC00071FB00224FF40061284801F06BFB012207
:100DD0004FF48051254801F065FB01224FF400518A
:100DE000224801F05FFB38E01F4B03221A6001220A
:100DF0004FF480611D4801F055FB01224FF4006162
:100E00001A4801F04FFB00224FF48051174801F0BF
:100E100049FB01224FF40051144801F043FB1CE050
:100E2000114B00221A6001224FF480610F4801F03B
:100E300039FB01224FF400610C4801F033FB012221
:100E40004FF48051094801F02DFB00224FF400516E
:100E5000064801F027FB00E000BF00BF0837BD4691
:100E600080BD00BF0000002060000020000801409D
:100E700080B400AF954B1A68954B1B689A421FDCF3
:100E8000934B1A68914B1B68D31A924A82FB031248
:100E90009210DB17D31A904A13608D4B1A688B4B54
:100EA0001B68D11A8B4B83FB01239A10CB17D21AE4
:100EB00013469B0013445B00CA1A874B5A6059E0E3
:100EC000834B1A68854B1B681A44804B1B689A42F7
:100ED00025DB7F4B1A68814B1B681A447B4B1B68D0
:100EE000D31A7C4A82FB03129210DB17D31A7A4A78
:100EF0001360774B1A68794B1B681A44734B1B6855
:100F0000D11A744B83FB01239A10CB17D21A1346C4
:100F10009B0013445B00CA1A6F4B5A602AE06C4B6B
:100F20001A686E4B1B681A446D4B1B681A44674B5A
:100F30001B68D31A674A82FB03129210DB17D31A7D
:100F4000654A1360624B1A68644B1B681A44644B11
:100F50001B681A445D4B1B68D11A5E4B83FB01234F
:100F60009A10CB17D21A13469B0013445B00CA1A7F
:100F7000594B5A60554B1B680133544A1360544B0C
:100F80001A68564B1B681A44554B1B681A444F4B42
:100F90001B689A4202DA4D4B01221A60514B1A68C3
:100FA0004E4B1B689A421FDC4C4B1A684D4B1B681A
:100FB000D31A484A82FB03129210DB17D31A464A0F
:100FC0009360464B1A68474B1B68D11A414B83FB11
:100FD00001239A10CB17D21A13469B0013445B00CF
:100FE000CA1A3D4BDA6059E03D4B1A683B4B1B680F
:100FF0001A443C4B1B689A4225DB394B1A68374B25
:101000001B681A44374B1B68D31A324A82FB0312FF
:101010009210DB17D31A304A9360314B1A682F4B6A
:101020001B681A442F4B1B68D11A2A4B83FB0123E0
:101030009A10CB17D21A13469B0013445B00CA1AAE
:10104000254BDA602AE0224B1A68244B1B681A44AD
:10105000234B1B681A44234B1B68D31A1D4A82FB7F
:1010600003129210DB17D31A1B4A9360184B1A68AD
:101070001A4B1B681A441A4B1B681A44194B1B68FD
:10108000D11A144B83FB01239A10CB17D21A1346A3
:101090009B0013445B00CA1A0F4BDA60114B1B68AC
:1010A0000133104A13600A4B1A680C4B1B681A4430
:1010B0000B4B1B681A440B4B1B689A4202DA094B14
:1010C00001221A6000BFBD4680BC7047100000209E
:1010D00018000020676666660000002020000020DF
:1010E0001C0000201400002080B400AF114B00222F
:1010F0001A60104B02225A600F4B1B680F4A82FB8A
:1011000003129210DB17D31A0A4A93600A4B19682C
:101110000A4B83FB01239A10CB17D21A13469B006C
:1011200013445B00CA1A034BDA6000BFBD4680BCA3
:10113000704700BF00000020180000206766666648
:1011400080B400AF114B00221A60104B03225A608A
:101150000F4B1B680F4A82FB03129210DB17D31A46
:101160000A4A93600A4B19680A4B83FB01239A10C1
:10117000CB17D21A13469B0013445B00CA1A034BC9
:10118000DA6000BFBD4680BC704700BF0000002091
:101190001C0000206766666680B400AF114B002219
:1011A0001A60104B04225A600F4B1B680F4A82FBD7
:1011B00003129210DB17D31A0A4A93600A4B19687C
:1011C0000A4B83FB01239A10CB17D21A13469B00BC
:1011D00013445B00CA1A034BDA6000BFBD4680BCF3
:1011E000704700BF00000020200000206766666690
:1011F00080B500AFC04B1B682B2B00F2478401A2C7
:1012000052F823F0B5120008BD1200089915000825
:1012100027170008E71800088D1A00088D1A000823
:101220008D1A00088D1A00088D1A00084F13000847
:10123000E5130008651400081D1500088D1A000844
:101240008D1A00088D1A00088D1A00088D1A0008E2
:101250008D1A00088D1A00080B1600089F17000849
:101260005F1900088D1A00088D1A00088D1A0008F1
:101270008D1A00088D1A00088D1A00088D1A0008B2
:101280008D1A00088D1A00088D1A00088D1A0008A2
:101290008D1A00088D1A00088D1A00088D1A000892
:1012A0008D1A00088D1A00089516000841180008CC
:1012B000EF190008904B01221A60FAE38E4B0A22C4
:1012C0001A60002210218D4801F0ECF80122202143
:1012D0008A4801F0E7F801224021884801F0E2F84D
:1012E00000228021854801F0DDF801228021834819
:1012F00001F0D8F801224FF40071804801F0D2F8D3
:101300007F4B01221A607F4B01221A607E4B002224
:101310001A60FFF7ADFD7C4B1B681846FFF712FD06
:101320007A4B1B684FF47A7202FB03F319460020D4
:10133000FFF718FB4FF47A710120FFF713FBFA2136
:101340000220FFF70FFB0320FFF756FBB1E300225B
:1013500010216A4801F0A6F801224021674801F0F7
:10136000A1F800228021654801F09CF801224FF489
:101370000071624801F096F8654B1B68012B0CD197
:101380005D4B0B221A60634B1B684FF47A7202FBB1
:1013900003F319460020FFF7E5FA5D4B5B68012B6C
:1013A00006D1FFF765FD4FF47A710120FFF7DAFAF5
:1013B000574B9B68012B08D1534B1B681846FFF70E
:1013C000C1FCFA210220FFF7CDFA0020FFF7B6FAA0
:1013D0000346012B02D1484B02221A60464B0A22D7
:1013E0001A6066E300224FF48071444801F05AF815
:1013F00001224FF40071414801F054F8444B1B683E
:10140000012B0CD13C4B0C221A60404B1B684FF453
:101410007A7202FB03F319460020FFF7A3FA3C4B54
:101420005B68012B06D1FFF723FD4FF47A71012091
:10143000FFF798FA364B9B68012B08D1324B1B689B
:101440001846FFF77FFCFA210220FFF78BFA0020F5
:10145000FFF774FA0346012B40F01A83264B022251
:101460001A6015E301221021244801F01BF8002224
:101470004021224801F016F8002280211F4801F087
:1014800011F801224FF480711C4801F00BF8204B39
:101490001B68012B0CD1184B0D221A601E4B1B68C8
:1014A0004FF47A7202FB03F319460020FFF75AFA51
:1014B000174B5B68012B06D1FFF7DAFC4FF47A710A
:1014C0000120FFF74FFA124B9B68012B08D10E4BFE
:1014D0001B681846FFF736FCFA210220FFF742FA94
:1014E0000020FFF72BFA0346012B40F0D382024B7A
:1014F00002221A60CEE200BF640000200008014012
:1015000010000020140000206000002020000020B7
:101510005C0000201C000020180000200022202178
:10152000BD4800F0BFFF00228021BB4800F0BAFF99
:10153000BA4B1B68012B0CD1B94B0A221A60B94B6C
:101540001B684FF47A7202FB03F319460020FFF781
:1015500009FAB24B5B68012B06D1FFF789FC4FF407
:101560007A710120FFF7FEF9AC4B9B68012B08D183
:10157000AD4B1B681846FFF7E5FBFA210220FFF789
:10158000F1F90020FFF7DAF90346012B40F08482DD
:10159000A34B02221A607FE2A14B15221A6000229F
:1015A00010219D4800F07EFF012220219A4800F082
:1015B00079FF01224021984800F074FF0022802129
:1015C000954800F06FFF01228021934800F06AFFE8
:1015D00001224FF40071904800F064FFFFF784FD92
:1015E000914B1B681846FFF7ADFBFA210220FFF76D
:1015F000B9F94FF4FA710320FFF7B4F90020FFF7AF
:10160000FBF90120FFF7F8F953E2844BDB68012B6B
:101610000ED100221021804800F044FF00228021DA
:101620007D4800F03FFF4FF4FA710320FFF79AF96D
:101630007A4B9B68012B0AD17B4B1B681846FFF73E
:1016400081FBFFF751FDFA210220FFF78BF9002003
:10165000FFF774F90346012B02D1714B03221A6084
:101660000120FFF76BF90346012B40F017826C4B0A
:1016700029221A606D4B1B68622B05DC6B4B1B68C3
:1016800001336A4A136009E2664B1B680133674AFB
:10169000136003E2614BDB68012B0ED100221021A5
:1016A0005D4800F0FFFE002280215B4800F0FAFE5A
:1016B0004FF4FA710320FFF755F9584B9B68012B43
:1016C0000AD1FFF711FD584B1B681846FFF73AFB8C
:1016D000FA210220FFF746F90120FFF72FF9034610
:1016E000012B0ED1514B1B68622B05DC4F4B1B6845
:1016F00001334E4A136004E04A4B1B6801334B4AE6
:1017000013600020FFF71AF90346012B40F0C8814F
:10171000434B15221A60454B1A68424B1B68D31A7B
:10172000434A1360BCE13E4B16221A60012210218D
:10173000394800F0B7FE00222021374800F0B2FE01
:1017400001224021344800F0ADFE012280213248C0
:1017500000F0A8FE002280212F4800F0A3FE012205
:101760004FF400712C4800F09DFEFFF7BDFC2E4B9E
:101770001B681846FFF7E6FAFA210220FFF7F2F895
:101780004FF4FA710320FFF7EDF8274B00221A609F
:101790000020FFF731F90120FFF72EF989E11F4BF7
:1017A000DB68012B0ED1002220211B4800F07AFEBD
:1017B00000228021184800F075FE4FF4FA710320D2
:1017C000FFF7D0F8154B9B68012B0AD1164B1B680D
:1017D0001846FFF7B7FAFFF787FCFA210220FFF758
:1017E000C1F80020FFF7AAF80346012B02D10C4BE9
:1017F00004221A600120FFF7A1F80346012B40F0F4
:101800005181074B2A221A60064B1B68042B11DDFD
:10181000044B01221A6045E1000801405C000020F1
:10182000640000201C000020600000201800002040
:1018300020000020A04B1B6801339F4A136031E158
:101840009E4BDB68012B0ED1002220219C4800F02A
:1018500029FE002280219A4800F024FE4FF4FA71FC
:101860000320FFF77FF8954B9B68012B0AD1FFF708
:101870003BFC944B1B681846FFF764FAFA210220E0
:10188000FFF770F80120FFF759F80346012B0CD140
:10189000894B1B68042B03DD874B01221A6004E08F
:1018A000854B1B680133844A13600220FFF746F81A
:1018B0000346012B40F0F880834B16221A60834BBD
:1018C0001A687D4B1B689A4205DC7B4B1B68013311
:1018D0007E4A1360E8E07D4B1A68774B1B68D31A89
:1018E0007B4A1360E0E0784B17221A600122102136
:1018F000734800F0D7FD01222021714800F0D2FD8D
:10190000002240216E4800F0CDFD012280216C486C
:1019100000F0C8FD01228021694800F0C3FD0022CB
:101920004FF40071664800F0BDFDFFF709FC654B00
:101930001B681846FFF706FAFA210220FFF712F893
:101940004FF4FA710320FFF70DF85E4B00221A6086
:101950000020FFF751F80120FFF74EF8A9E0574BA0
:10196000DB68012B0FD100224021554800F09AFD81
:1019700000224FF40071524800F094FD4FF4FA71C8
:101980000320FEF7EFFF4D4B9B68012B0AD1FFF7B9
:1019900003FC4C4B1B681846FFF7D4F9FA210220D0
:1019A000FEF7E0FF0020FEF7C9FF0346012B02D13E
:1019B000454B01221A600120FEF7C0FF0346012BB0
:1019C00074D1414B2B221A60404B1A683A4B1B686A
:1019D000D21A3F4B1B689A4203DC3D4B01221A602E
:1019E00064E03B4B1B680133394A13605EE0334BC4
:1019F000DB68012B0FD100224021314800F052FD5D
:101A000000224FF400712E4800F04CFD4FF4FA71A3
:101A10000320FEF7A7FF294B9B68012B0DD1FFF791
:101A2000BBFB284B1B681846FFF78CF9254B00229F
:101A30001A60FA210220FEF795FF0120FEF77EFFD3
:101A40000346012B11D1214B1A681B4B1B68D21A7C
:101A50001F4B1B689A4203DC1D4B01221A6004E0F5
:101A60001B4B1B6801331A4A13600220FEF766FF06
:101A70000346012B1CD1144B17221A60144B1A6811
:101A80000D4B1B681344114A136011E000BF10E0B6
:101A900000BF0EE000BF0CE000BF0AE000BF08E09E
:101AA00000BF06E000BF04E000BF02E000BF00E0AE
:101AB00000BF00BF80BD00BF1C0000205C000020F4
:101AC0000008014060000020640000201800002091
:101AD0002000002080B500AF00F0FAF900F00CF80B
:101AE00000F046F800F0D0F8024801F01FF9FFF7C7
:101AF0007FFBFCE76C00002080B590B000AF07F1E1
:101B0000180328220021184601F0C0FC3B1D0022CA
:101B10001A605A609A60DA601A610223BB6101237D
:101B2000BB621023FB6200237B6307F11803184696
:101B300000F0D0FC0346002B01D000F00FF90F237A
:101B40007B600023BB600023FB6000233B6100231C
:101B50007B613B1D0021184600F03CFF0346002B33
:101B600001D000F0FBF800BF4037BD4680BD00004B
:101B7000B0B586B000AF07F1080300221A605A60C2
:101B80009A60DA603B4600221A605A603A4B4FF086
:101B900080421A60384B41F63F725A60364B002241
:101BA0009A60354B0922DA60334B00221A61324BBE
:101BB00000229A61304801F069F80346002B01D0F9
:101BC00000F0CCF84FF48053BB6007F108031946CE
:101BD000294801F0E7F90346002B01D000F0BEF8D8
:101BE00000233B6000237B603B461946224801F0FE
:101BF000BFFB0346002B01D000F0B0F81E4B5B6822
:101C000001331846FEF7E6FB02460B4618A1D1E960
:101C10000001FEF783FD02460B4614461D46164B97
:101C2000DB6801331846FEF7D5FB02460B4620461B
:101C30002946FEF773FD02460B464FF000000F49A0
:101C4000FEF76CFD02460B46104619464FF00002A7
:101C50000B4BFEF739FC02460B4610461946FEF7C1
:101C600045FE0346074A136000BF1837BD46B0BDA6
:101C70000000000080845E416C0000200000F03F06
:101C800000408F406800002080B586B000AF07F1AB
:101C9000080300221A605A609A60DA60274B9B6939
:101CA000264A43F004039361244B9B6903F0040329
:101CB0007B607B68214B9B69204A43F0080393615A
:101CC0001E4B9B6903F008033B603B68002243F610
:101CD000F0711B4800F0E6FB00227F21194800F05C
:101CE000E1FB0E23BB600023FB6000233B6107F197
:101CF00008031946124800F05BFA43F6F073BB6024
:101D00000123FB6000233B6102237B6107F1080391
:101D100019460B4800F04CFA7F23BB600123FB609F
:101D200000233B6102237B6107F108031946054844
:101D300000F03EFA00BF1837BD4680BD00100240DB
:101D400000080140000C014080B582B000AF78600F
:101D5000FEF726FE00BF0837BD4680BD80B400AF49
:101D600072B600BFFEE7000080B485B000AF154B2F
:101D70009B69144A43F001039361124B9B6903F082
:101D80000103BB60BB680F4BDB690E4A43F0805315
:101D9000D3610C4BDB6903F080537B607B680A4B9B
:101DA0005B68FB60FB6823F0E063FB60FB6843F06B
:101DB0008063FB60044AFB68536000BF1437BD4674
:101DC00080BC7047001002400000014080B584B024
:101DD00000AF78607B681B68B3F1804F13D10C4B68
:101DE000DB690B4A43F00103D361094BDB6903F064
:101DF0000103FB60FB68002200211C2000F0A1F918
:101E00001C2000F0BAF900BF1037BD4680BD00BFEE
:101E10000010024080B400AFFEE780B400AFFEE7E0
:101E200080B400AFFEE780B400AFFEE780B400AF3F
:101E3000FEE780B400AF00BFBD4680BC704780B4F1
:101E400000AF00BFBD4680BC704780B400AF00BF8C
:101E5000BD4680BC704780B500AF00F07FF800BF82
:101E600080BD000080B500AF024800F0ABFF00BFAE
:101E700080BD00BF6C00002080B400AF00BFBD4635
:101E800080BC7047FFF7F8FF0B480C490C4A002351
:101E900002E0D458C4500433C4188C42F9D3094A20
:101EA000094C002301E013600432A242FBD301F08D
:101EB000C9FAFFF70FFE7047000000203000002035
:101EC000E034000830000020B8000020FEE70000E9
:101ED00080B500AF084B1B68074A43F0100313603E
:101EE000032000F023F90F2000F008F8FFF73CFF73
:101EF0000023184680BD00BF0020024080B582B09C
:101F000000AF7860124B1A68124B1B7819464FF4D9
:101F10007A73B3FBF1F3B2FBF3F3184600F03BF92D
:101F20000346002B01D001230EE07B680F2B0AD85B
:101F3000002279684FF0FF3000F003F9064A7B6811
:101F40001360002300E0012318460837BD4680BD1A
:101F5000240000202C0000202800002080B400AFC6
:101F6000054B1B781A46054B1B681344034A136044
:101F700000BFBD4680BC70472C000020B40000208C
:101F800080B400AF024B1B681846BD4680BC70474A
:101F9000B400002080B485B000AF78607B6803F0A7
:101FA0000703FB600C4BDB68BB60BA684FF6FF03AE
:101FB0001340BB60FB681A02BB68134343F0BF6366
:101FC00043F40033BB60044ABB68D36000BF1437DE
:101FD000BD4680BC704700BF00ED00E080B400AF9C
:101FE000044BDB681B0A03F007031846BD4680BCA0
:101FF000704700BF00ED00E080B483B000AF03463F
:10200000FB7197F90730002B0BDBFB7903F01F0204
:10201000064997F907305B09012000FA02F241F8FE
:10202000232000BF0C37BD4680BC704700E100E0B4
:1020300080B483B000AF03463960FB7197F9073075
:10204000002B0ADB3B68DAB20C4997F90730120122
:10205000D2B20B4483F800230AE03B68DAB20849A5
:10206000FB7903F00F03043B1201D2B20B441A7642
:1020700000BF0C37BD4680BC704700BF00E100E0E8
:1020800000ED00E080B489B000AFF860B9607A601C
:10209000FB6803F00703FB61FB69C3F10703042B33
:1020A00028BF0423BB61FB690433062B02D9FB69FB
:1020B000033B00E000237B614FF0FF32BB6902FA73
:1020C00003F3DA43BB681A407B699A404FF0FF3153
:1020D0007B6901FA03F3D9437B680B40134318462D
:1020E0002437BD4680BC704780B582B000AF7860B1
:1020F0007B68013BB3F1807F01D301230FE00A4AE3
:102100007B68013B53600F214FF0FF30FFF790FFDA
:10211000054B00229A60044B07221A6000231846E0
:102120000837BD4680BD00BF10E000E080B582B03A
:1021300000AF78607868FFF72DFF00BF0837BD4615
:1021400080BD80B586B000AF0346B9607A60FB738E
:1021500000237B61FFF742FF78617A68B96878698C
:10216000FFF790FF024697F90F3011461846FFF728
:102170005FFF00BF1837BD4680BD80B582B000AF9D
:102180000346FB7197F907301846FFF735FF00BF8C
:102190000837BD4680BD80B582B000AF78607868F2
:1021A000FFF7A2FF034618460837BD4680BD000072
:1021B00080B48BB000AF7860396000237B6200236D
:1021C0003B6248E101227B6A02FA03F3FB613B6850
:1021D0001B68FA691340BB61BA69FB699A4240F017
:1021E00037813B685B68A34A93425ED0A14A934221
:1021F00075D8A14A934258D09F4A93426FD89F4ABC
:10220000934252D09D4A934269D89D4A93424CD002
:102210009B4A934263D89B4A934246D0994A934241
:102220005DD8122B2AD8122B59D801A252F823F0CC
:10223000AB2200088522000897220008D922000856
:10224000DF220008DF220008DF220008DF2200086A
:10225000DF220008DF220008DF220008DF2200085A
:10226000DF220008DF220008DF220008DF2200084A
:10227000DF2200088D220008A1220008824A934232
:1022800013D02CE03B68DB683B6229E03B68DB68ED
:1022900004333B6224E03B68DB6808333B621FE0A9
:1022A0003B68DB680C333B621AE03B689B68002BA1
:1022B00002D104233B6213E03B689B68012B05D1EC
:1022C00008233B627B68FA691A6109E008233B62D4
:1022D0007B68FA695A6103E000233B6200E000BFBB
:1022E000BB69FF2B01D87B6801E07B6804337B610D
:1022F000BB69FF2B02D87B6A9B0002E07B6A083B2C
:102300009B003B617B691A680F213B6901FA03F36B
:10231000DB431A40396A3B6901FA03F31A437B69CC
:102320001A603B685B6803F08053002B00F09080DC
:10233000564B9B69554A43F001039361534B9B698C
:1023400003F00103BB60BB68514A7B6A9B08023300
:1023500052F82330FB607B6A03F003039B000F22DB
:1023600002FA03F3DB43FA681340FB607B68494AD7
:1023700093420DD07B68484A934207D07B68474A16
:10238000934201D1022304E0032302E0012300E091
:1023900000237A6A02F0030292009340FA68134322
:1023A000FB603B497B6A9B080233FA6841F82320B3
:1023B0003B685B6803F48013002B06D0384B9A68A7
:1023C0003749BB6913438B6006E0354B9A68BB699C
:1023D000DB43334913408B603B685B6803F40013B5
:1023E000002B06D02E4BDA682D49BB691343CB6016
:1023F00006E02B4BDA68BB69DB4329491340CB600D
:102400003B685B6803F40033002B06D0244B5A680A
:102410002349BB6913434B6006E0214B5A68BB69F3
:10242000DB431F4913404B603B685B6803F4803318
:10243000002B06D01A4B1A681949BB6913430B606D
:1024400006E0174B1A68BB69DB43154913400B6064
:102450007B6A01337B623B681A687B6A22FA03F36A
:10246000002B7FF4AFAE00BF00BF2C37BD4680BC51
:10247000704700BF00003210000031100000221031
:102480000000211000001210000011100010024086
:102490000000014000080140000C01400010014014
:1024A0000004014080B483B000AF78600B467B80AD
:1024B00013467B707B78002B03D07A887B681A6187
:1024C00003E07B881A047B681A6100BF0C37BD46A5
:1024D00080BC704780B586B000AF78607B68002B09
:1024E00001D101236CE27B681B6803F00103002B20
:1024F00000F08780924B5B6803F00C03042B0CD038
:102500008F4B5B6803F00C03082B12D18C4B5B687C
:1025100003F48033B3F5803F0BD1894B1B6803F480
:102520000033002B6CD07B685B68002B68D10123E3
:1025300046E27B685B68B3F5803F06D1804B1B6841
:102540007F4A43F4803313602EE07B685B68002B86
:102550000CD17B4B1B687A4A23F480331360784B91
:102560001B68774A23F4802313601DE07B685B6857
:10257000B3F5A02F0CD1724B1B68714A43F4802332
:1025800013606F4B1B686E4A43F4803313600BE09B
:102590006B4B1B686A4A23F480331360684B1B68DB
:1025A000674A23F4802313607B685B68002B13D099
:1025B000FFF7E6FC386108E0FFF7E2FC02463B6902
:1025C000D31A642B01D90323FAE15D4B1B6803F492
:1025D0000033002BF0D014E0FFF7D2FC386108E0A4
:1025E000FFF7CEFC02463B69D31A642B01D90323C3
:1025F000E6E1534B1B6803F40033002BF0D100E0FD
:1026000000BF7B681B6803F00203002B63D04C4BB8
:102610005B6803F00C03002B0BD0494B5B6803F0A5
:102620000C03082B1CD1464B5B6803F48033002B52
:1026300016D1434B1B6803F00203002B05D07B68C7
:102640001B69012B01D00123BAE13D4B1B6823F02C
:10265000F8027B685B69DB00394913430B603AE0A1
:102660007B681B69002B20D0364B01221A60FFF7D4
:1026700087FC386108E0FFF783FC02463B69D31A08
:10268000022B01D903239BE12D4B1B6803F00203AE
:10269000002BF0D02A4B1B6823F0F8027B685B69A3
:1026A000DB00274913430B6015E0264B00221A601C
:1026B000FFF766FC386108E0FFF762FC02463B6901
:1026C000D31A022B01D903237AE11D4B1B6803F0B7
:1026D0000203002BF0D17B681B6803F00803002B7A
:1026E0003AD07B689B69002B19D0174B01221A60E6
:1026F000FFF746FC386108E0FFF742FC02463B6901
:10270000D31A022B01D903235AE10D4B5B6A03F064
:102710000203002BF0D0012000F09AFA1CE00A4BD3
:1027200000221A60FFF72CFC38610FE0FFF728FC4D
:1027300002463B69D31A022B08D9032340E100BFAC
:102740000010024000004242800442429E4B5B6AFD
:1027500003F00203002BE9D17B681B6803F004033C
:10276000002B00F0A6800023FB75974BDB6903F07C
:102770008053002B0DD1944BDB69934A43F0805377
:10278000D361914BDB6903F08053BB60BB680123CD
:10279000FB758E4B1B6803F48073002B18D18B4B99
:1027A0001B688A4A43F480731360FFF7E9FB3861C2
:1027B00008E0FFF7E5FB02463B69D31A642B01D919
:1027C0000323FDE0814B1B6803F48073002BF0D0E2
:1027D0007B68DB68012B06D17B4B1B6A7A4A43F08E
:1027E000010313622DE07B68DB68002B0CD1764B74
:1027F0001B6A754A23F001031362734B1B6A724A0A
:1028000023F0040313621CE07B68DB68052B0CD10A
:102810006D4B1B6A6C4A43F0040313626A4B1B6ADC
:10282000694A43F0010313620BE0674B1B6A664A77
:1028300023F001031362644B1B6A634A23F0040311
:1028400013627B68DB68002B15D0FFF799FB3861BA
:102850000AE0FFF795FB02463B69D31A41F2883242
:10286000934201D90323ABE0574B1B6A03F00203E9
:10287000002BEED014E0FFF783FB38610AE0FFF78E
:102880007FFB02463B69D31A41F28832934201D959
:10289000032395E04C4B1B6A03F00203002BEED19F
:1028A000FB7D012B05D1484BDB69474A23F0805360
:1028B000D3617B68DB69002B00F08180424B5B6851
:1028C00003F00C03082B61D07B68DB69022B46D137
:1028D0003F4B00221A60FFF753FB386108E0FFF717
:1028E0004FFB02463B69D31A022B01D9032367E051
:1028F000354B1B6803F00073002BF0D17B681B6A1B
:10290000B3F5803F08D1304B5B6823F400327B681D
:102910009B682D4913434B602B4B5B6823F4741267
:102920007B68196A7B685B6A0B43274913434B60DA
:10293000274B01221A60FFF723FB386108E0FFF7FD
:102940001FFB02463B69D31A022B01D9032337E050
:102950001D4B1B6803F00073002BF0D02FE01C4BC5
:1029600000221A60FFF70CFB386108E0FFF708FB54
:1029700002463B69D31A022B01D9032320E0124BF4
:102980001B6803F00073002BF0D118E07B68DB6953
:10299000012B01D1012313E00B4B5B68FB60FB684B
:1029A00003F480327B681B6A9A4206D1FB6803F409
:1029B00070127B685B6A9A4201D0012300E0002319
:1029C00018461837BD4680BD001002400070004018
:1029D0006000424280B584B000AF786039607B68A7
:1029E000002B01D10123D0E06A4B1B6803F00703E1
:1029F0003A689A4210D9674B1B6823F00702654971
:102A00003B6813430B60634B1B6803F007033A6892
:102A10009A4201D00123B8E07B681B6803F00203EF
:102A2000002B20D07B681B6803F00403002B05D02B
:102A3000594B5B68584A43F4E06353607B681B68FA
:102A400003F00803002B05D0534B5B68524A43F454
:102A500060535360504B5B6823F0F0027B689B68C7
:102A60004D4913434B607B681B6803F00103002B47
:102A700040D07B685B68012B07D1474B1B6803F490
:102A80000033002B15D101237FE07B685B68022BAC
:102A900007D1414B1B6803F00073002B09D10123C0
:102AA00073E03D4B1B6803F00203002B01D10123AF
:102AB0006BE0394B5B6823F003027B685B68364947
:102AC00013434B60FFF75CFAF8600AE0FFF758FA2F
:102AD0000246FB68D31A41F28832934201D903239C
:102AE00053E02D4B5B6803F00C027B685B689B0036
:102AF0009A42EBD1274B1B6803F007033A689A42CE
:102B000010D2244B1B6823F0070222493B68134371
:102B10000B60204B1B6803F007033A689A4201D010
:102B2000012332E07B681B6803F00403002B08D00C
:102B3000194B5B6823F4E0627B68DB68164913433A
:102B40004B607B681B6803F00803002B09D0124B15
:102B50005B6823F460527B681B69DB000E491343FA
:102B60004B6000F021F802460B4B5B681B0903F039
:102B70000F030A49CB5C22FA03F3094A1360094B9D
:102B80001B681846FFF7BAF9002318461037BD46F0
:102B900080BD00BF0020024000100240B434000895
:102BA000240000202800002080B487B000AF00235C
:102BB000FB600023BB6000237B6100237B6000235C
:102BC0003B611E4B5B68FB60FB6803F00C03042B4E
:102BD00002D0082B03D027E0194B3B6127E0FB68AC
:102BE0009B0C03F00F03174AD35C7B60FB6803F474
:102BF0008033002B10D0114B5B685B0C03F001039A
:102C0000114AD35CBB607B680D4A02FB03F2BB68D0
:102C1000B2FBF3F37B6104E07B680C4A02FB03F335
:102C20007B617B693B6102E0054B3B6100BF3B6917
:102C300018461C37BD4680BC704700BF00100240DC
:102C400000127A00C4340008D434000800093D00A2
:102C500080B485B000AF78600A4B1B680A4AA2FBBB
:102C600003235B0A7A6802FB03F3FB6000BFFB6887
:102C70005A1EFA60002BF9D100BF00BF1437BD46C1
:102C800080BC704724000020D34D621080B582B014
:102C900000AF78607B68002B01D1012341E07B68A5
:102CA00093F83D30DBB2002B06D17B68002283F81D
:102CB0003C207868FFF78AF87B68022283F83D2081
:102CC0007B681A687B6804331946104600F056FA90
:102CD0007B68012283F846207B68012283F83E202E
:102CE0007B68012283F83F207B68012283F8402023
:102CF0007B68012283F841207B68012283F842200F
:102D00007B68012283F843207B68012283F84420FA
:102D10007B68012283F845207B68012283F83D20EF
:102D2000002318460837BD4680BD000080B485B03A
:102D300000AF78607B6893F83D30DBB2012B01D0A7
:102D4000012335E07B68022283F83D207B681B6805
:102D5000DA687B681B6842F00102DA607B681B68F6
:102D6000164A934209D07B681B68B3F1804F04D0A8
:102D70007B681B68124A934211D17B681B689B6871
:102D800003F00703FB60FB68062B10D07B681B6811
:102D90001A687B681B6842F001021A6007E07B68D2
:102DA0001B681A687B681B6842F001021A600023E6
:102DB00018461437BD4680BC704700BF002C014048
:102DC0000004004080B584B000AF78607B681B6869
:102DD000DB68FB607B681B681B69BB60BB6803F03A
:102DE0000203002B20D0FB6803F00203002B1BD052
:102DF0007B681B686FF002021A617B6801221A77F8
:102E00007B681B689B6903F00303002B03D0786881
:102E100000F098F905E0786800F08BF9786800F028
:102E20009AF97B6800221A77BB6803F00403002B31
:102E300020D0FB6803F00403002B1BD07B681B68C9
:102E40006FF004021A617B6802221A777B681B68A4
:102E50009B6903F44073002B03D0786800F072F98B
:102E600005E0786800F065F9786800F074F97B682F
:102E700000221A77BB6803F00803002B20D0FB6800
:102E800003F00803002B1BD07B681B686FF008025F
:102E90001A617B6804221A777B681B68DB6903F080
:102EA0000303002B03D0786800F04CF905E0786844
:102EB00000F03FF9786800F04EF97B6800221A773D
:102EC000BB6803F01003002B20D0FB6803F0100355
:102ED000002B1BD07B681B686FF010021A617B68A7
:102EE00008221A777B681B68DB6903F44073002BA8
:102EF00003D0786800F026F905E0786800F019F949
:102F0000786800F028F97B6800221A77BB6803F024
:102F10000103002B0CD0FB6803F00103002B07D04A
:102F20007B681B686FF001021A617868FEF70CFF7E
:102F3000BB6803F08003002B0CD0FB6803F0800318
:102F4000002B07D07B681B686FF080021A617868DD
:102F500000F06FFABB6803F04003002B0CD0FB6855
:102F600003F04003002B07D07B681B686FF0400222
:102F70001A61786800F0F8F8BB6803F02003002BB2
:102F80000CD0FB6803F02003002B07D07B681B6884
:102F90006FF020021A61786800F042FA00BF103723
:102FA000BD4680BD80B584B000AF78603960002335
:102FB000FB737B6893F83C30012B01D10223B4E012
:102FC0007B68012283F83C207B68022283F83D2045
:102FD0007B681B689B68BB60BB6823F07703BB60A2
:102FE000BB6823F47F43BB607B681B68BA689A6048
:102FF0003B681B68B3F5005F3ED0B3F5005F00F29D
:103000008780B3F5805F00F08680B3F5805F7FD85E
:10301000702B1AD0702B7BD8602B50D0602B77D8B8
:10302000502B3CD0502B73D8402B58D0402B6FD80E
:10303000302B64D0302B6BD8202B60D0202B67D85E
:10304000002B5CD0102B5AD062E07B6818683B687C
:1030500099683B685A683B68DB6800F06AF97B68EE
:103060001B689B68BB60BB6843F07703BB607B68F1
:103070001B68BA689A604FE07B6818683B6899687B
:103080003B685A683B68DB6800F053F97B681B6853
:103090009A687B681B6842F480429A603CE07B68D7
:1030A00018683B6859683B68DB681A4600F0CAF844
:1030B0007B681B685021184600F021F92CE07B68E2
:1030C00018683B6859683B68DB681A4600F0E8F806
:1030D0007B681B686021184600F011F91CE07B68D2
:1030E00018683B6859683B68DB681A4600F0AAF824
:1030F0007B681B684021184600F001F90CE07B68F2
:103100001A683B681B681946104600F0F8F803E09F
:103110000123FB7300E000BF7B68012283F83D20A0
:103120007B68002283F83C20FB7B18461037BD46A5
:1031300080BD80B483B000AF786000BF0C37BD465F
:1031400080BC704780B483B000AF786000BF0C379C
:10315000BD4680BC704780B483B000AF786000BFCC
:103160000C37BD4680BC704780B483B000AF786038
:1031700000BF0C37BD4680BC7047000080B485B0EE
:1031800000AF786039607B681B68FB607B682B4A06
:10319000934207D07B68B3F1804F03D07B68284A05
:1031A000934208D1FB6823F07003FB603B685B68C7
:1031B000FA681343FB607B68204A934207D07B6820
:1031C000B3F1804F03D07B681D4A934208D1FB685E
:1031D00023F44073FB603B68DB68FA681343FB60D1
:1031E000FB6823F080023B685B691343FB607B68EC
:1031F000FA681A603B689A687B68DA623B681A680A
:103200007B689A627B680D4A934203D13B681A69D6
:103210007B681A637B6801225A617B681B6903F033
:103220000103002B05D07B681B6923F001027B683A
:103230001A6100BF1437BD4680BC7047002C0140A6
:103240000004004080B487B000AFF860B9607A60D5
:10325000FB681B6A7B61FB681B6A23F00102FB6849
:103260001A62FB689B693B613B6923F0F0033B6199
:103270007B681B013A6913433B617B6923F00A03B6
:103280007B617A69BB6813437B61FB683A699A6129
:10329000FB687A691A6200BF1C37BD4680BC704764
:1032A00080B487B000AFF860B9607A60FB681B6AD1
:1032B0007B61FB681B6A23F01002FB681A62FB68E3
:1032C0009B693B613B6923F470433B617B681B0353
:1032D0003A6913433B617B6923F0A0037B61BB68C0
:1032E0001B017A6913437B61FB683A699A61FB6849
:1032F0007A691A6200BF1C37BD4680BC704780B433
:1033000085B000AF786039607B689B68FB60FB68C4
:1033100023F07003FB603A68FB68134343F0070334
:10332000FB607B68FA689A6000BF1437BD4680BCBA
:10333000704780B487B000AFF860B9607A603B60D6
:10334000FB689B687B617B6923F47F437B613B68FF
:103350001A027B681A43BB6813437A6913437B6183
:10336000FB687A699A6000BF1C37BD4680BC704715
:1033700080B485B000AF786039607B6893F83C30EA
:10338000012B01D1022341E07B68012283F83C201C
:103390007B68022283F83D207B681B685B68FB60CA
:1033A0007B681B689B68BB60FB6823F07003FB6055
:1033B0003B681B68FA681343FB607B681B68FA680C
:1033C0005A607B681B68144A934209D07B681B686B
:1033D000B3F1804F04D07B681B68104A93420CD134
:1033E000BB6823F08003BB603B685B68BA6813432B
:1033F000BB607B681B68BA689A607B68012283F8AF
:103400003D207B68002283F83C20002318461437B7
:10341000BD4680BC704700BF002C01400004004046
:1034200080B483B000AF786000BF0C37BD4680BC6D
:10343000704780B483B000AF786000BF0C37BD46E2
:1034400080BC704770B500260C4D0D4C641BA41059
:10345000A64209D100F022F800260A4D0A4C641B4E
:10346000A410A64205D170BD55F8043B984701361B
:10347000EEE755F8043B98470136F2E7D8340008E8
:10348000D8340008D8340008DC340008034602446D
:10349000934200D1704703F8011BF9E7F8B500BF6C
:1034A000F8BC08BC9E467047F8B500BFF8BC08BC25
:0434B0009E4670477D
:1034B40000000000000000000102030406070809E0
:1034C40002030405060708090A0B0C0D0E0F101061
:0434D40001020000F1
:0434D80035010008B2
:0434DC0011010008D2
:1034E00001000000020000000300000004000000D2
:1034F00001000000010000000500000002000000C3
:103500000300000000127A0010000000010000001B
:0400000508001E854C
:00000001FF
