:020000040800F2
:1000000000280020E91D0008791D00087F1D000858
:10001000851D00088B1D0008911D000800000000D0
:10002000000000000000000000000000971D000814
:10003000A31D000800000000AF1D0008BB1D000844
:10004000311E0008311E0008311E0008311E000854
:10005000311E0008311E0008311E0008311E000844
:10006000311E0008311E0008311E0008311E000834
:10007000311E0008311E0008311E0008311E000824
:10008000311E0008311E0008311E0008311E000814
:10009000311E0008311E0008311E0008311E000804
:1000A000311E0008311E0008311E0008311E0008F4
:1000B000C91D0008311E000800000000311E0008A4
:1000C000311E00080000000000000000311E000882
:1000D00000000000311E0008311E00080000000072
:1000E000311E0008311E0008311E0008000000000B
:1000F0000000000000000000000000000000000000
:0C01000000000000000000005FF808F1A3
:1001100010B5054C237833B9044B13B10448AFF341
:1001200000800123237010BD60000020000000004B
:100130006034000808B5034B1BB103490348AFF313
:10014000008008BD0000000064000020603400084A
:1001500081F0004102E000BF83F0004330B54FEA78
:1001600041044FEA430594EA050F08BF90EA020FE5
:100170001FBF54EA000C55EA020C7FEA645C7FEA78
:10018000655C00F0E2804FEA5454D4EB5555B8BF9B
:100190006D420CDD2C4480EA020281EA030382EA0C
:1001A000000083EA010180EA020281EA0303362D9E
:1001B00088BF30BD11F0004F4FEA01314FF4801C71
:1001C0004CEA113102D0404261EB410113F0004F83
:1001D0004FEA03334CEA133302D0524263EB43033A
:1001E00094EA050F00F0A780A4F10104D5F1200ED8
:1001F0000DDB02FA0EFC22FA05F2801841F1000133
:1002000003FA0EF2801843FA05F359410EE0A5F106
:1002100020050EF1200E012A03FA0EFC28BF4CF037
:10022000020C43FA05F3C01851EBE37101F00045ED
:1002300007D54FF0000EDCF1000C7EEB00006EEBFA
:100240000101B1F5801F1BD3B1F5001F0CD3490884
:100250005FEA30004FEA3C0C04F101044FEA4452DB
:1002600012F5800F80F09A80BCF1004F08BF5FEA62
:10027000500C50F1000041EB045141EA050130BD42
:100280005FEA4C0C404141EB0101013C28BFB1F554
:10029000801FE9D291F0000F04BF01460020B1FA9F
:1002A00081F308BF2033A3F10B03B3F120020CDA72
:1002B0000C3208DD02F1140CC2F10C0201FA0CF050
:1002C00021FA02F10CE002F11402D8BFC2F1200CB5
:1002D00001FA02F120FA0CFCDCBF41EA0C0190406B
:1002E000E41AA2BF01EB0451294330BD6FEA0404B4
:1002F0001F3C1CDA0C340EDC04F11404C4F120029F
:1003000020FA04F001FA02F340EA030021FA04F3B0
:1003100045EA030130BDC4F10C04C4F1200220FA07
:1003200002F001FA04F340EA0300294630BD21FA45
:1003300004F0294630BD94F0000F83F4801306BF0B
:1003400081F480110134013D4EE77FEA645C18BFFF
:100350007FEA655C29D094EA050F08BF90EA020F96
:1003600005D054EA000C04BF1946104630BD91EA8E
:10037000030F1EBF0021002030BD5FEA545C05D191
:100380004000494128BF41F0004130BD14F58004D0
:100390003CBF01F5801130BD01F0004545F0FE4144
:1003A00041F470014FF0000030BD7FEA645C1ABF79
:1003B000194610467FEA655C1CBF0B46024650EAB0
:1003C000013406BF52EA033591EA030F41F40021DC
:1003D00030BD00BF90F0000F04BF0021704730B562
:1003E0004FF4806404F132044FF000054FF0000137
:1003F00050E700BF90F0000F04BF0021704730B5F8
:100400004FF4806404F1320410F0004548BF4042CC
:100410004FF000013EE700BF42004FEAE2014FEA21
:1004200031014FEA02701FBF12F07F4393F07F4FFC
:1004300081F06051704732F07F4208BF704793F0FF
:100440007F4F04BF41F40021704730B54FF4607412
:1004500001F0004521F000411CE700BF50EA010215
:1004600008BF704730B54FF000050AE050EA0102BE
:1004700008BF704730B511F0004502D5404261EB2E
:1004800041014FF4806404F132045FEA915C3FF46F
:10049000D8AE4FF003025FEADC0C18BF03325FEA0C
:1004A000DC0C18BF033202EBDC02C2F1200300FABD
:1004B00003FC20FA02F001FA03FE40EA0E0021FAE2
:1004C00002F11444BDE600BF70B54FF0FF0C4CF4D0
:1004D000E06C1CEA11541DBF1CEA135594EA0C0F82
:1004E00095EA0C0F00F0DEF82C4481EA030621EABD
:1004F0004C5123EA4C5350EA013518BF52EA0335F8
:1005000041F4801143F4801338D0A0FB02CE4FF0A9
:100510000005E1FB02E506F00042E0FB03E54FF0D9
:100520000006E1FB03569CF0000F18BF4EF0010ED1
:10053000A4F1FF04B6F5007F64F5407404D25FEACD
:100540004E0E6D4146EB060642EAC62141EA555180
:100550004FEAC52040EA5E504FEACE2EB4F1FD0CC2
:1005600088BFBCF5E06F1ED8BEF1004F08BF5FEA40
:10057000500E50F1000041EB045170BD06F00046F2
:1005800046EA010140EA020081EA0301B4EB5C049F
:10059000C2BFD4EB0C0541EA045170BD41F4801197
:1005A0004FF0000E013C00F3AB8014F1360FDEBFBC
:1005B000002001F0004170BDC4F10004203C35DA98
:1005C0000C341BDC04F11404C4F1200500FA05F31B
:1005D00020FA04F001FA05F240EA020001F00042BC
:1005E00021F0004110EBD37021FA04F642EB060132
:1005F0005EEA430E08BF20EAD37070BDC4F10C045C
:10060000C4F1200500FA04F320FA05F001FA04F21F
:1006100040EA020001F0004110EBD37041F100010B
:100620005EEA430E08BF20EAD37070BDC4F1200516
:1006300000FA05F24EEA020E20FA04F301FA05F27E
:1006400043EA020321FA04F001F0004121FA04F226
:1006500020EA020000EBD3705EEA430E08BF20EAF6
:10066000D37070BD94F0000F0FD101F00046400030
:1006700041EB010111F4801F08BF013CF7D041EAB2
:10068000060195F0000F18BF704703F000465200B6
:1006900043EB030313F4801F08BF013DF7D043EA87
:1006A0000603704794EA0C0F0CEA135518BF95EA3D
:1006B0000C0F0CD050EA410618BF52EA4306D1D1C4
:1006C00081EA030101F000414FF0000070BD50EAE3
:1006D000410606BF1046194652EA430619D094EA6D
:1006E0000C0F02D150EA013613D195EA0C0F05D157
:1006F00052EA03361CBF104619460AD181EA0301AB
:1007000001F0004141F0FE4141F470014FF0000062
:1007100070BD41F0FE4141F4780170BD70B54FF0FD
:10072000FF0C4CF4E06C1CEA11541DBF1CEA13557D
:1007300094EA0C0F95EA0C0F00F0A7F8A4EB05045F
:1007400081EA030E52EA03354FEA013100F0888056
:100750004FEA03334FF0805545EA131343EA12631F
:100760004FEA022245EA111545EA10654FEA0026D4
:100770000EF000419D4208BF964244F1FD0404F58D
:10078000407402D25B084FEA3202B61A65EB0305E9
:100790005B084FEA32024FF480104FF4002CB6EBA6
:1007A000020E75EB030E22BFB61A754640EA0C0026
:1007B0005B084FEA3202B6EB020E75EB030E22BF66
:1007C000B61A754640EA5C005B084FEA3202B6EBA7
:1007D000020E75EB030E22BFB61A754640EA9C0066
:1007E0005B084FEA3202B6EB020E75EB030E22BF36
:1007F000B61A754640EADC0055EA060E18D04FEAF4
:10080000051545EA16754FEA06164FEAC30343EA93
:1008100052734FEAC2025FEA1C1CC0D111F4801F60
:100820000BD141EA00014FF000004FF0004CB6E759
:1008300011F4801F04BF01430020B4F1FD0C88BFF8
:10084000BCF5E06F3FF6AFAEB5EB030C04BFB6EB03
:10085000020C5FEA500C50F1000041EB045170BDF6
:100860000EF0004E4EEA113114EB5C04C2BFD4EB23
:100870000C0541EA045170BD41F480114FF0000EA7
:10088000013C90E645EA060E8DE60CEA135594EA23
:100890000C0F08BF95EA0C0F3FF43BAF94EA0C0F26
:1008A0000AD150EA01347FF434AF95EA0C0F7FF49B
:1008B00025AF104619462CE795EA0C0F06D152EAEF
:1008C00003353FF4FDAE1046194622E750EA4106D3
:1008D00018BF52EA43067FF4C5AE50EA41047FF4E4
:1008E0000DAF52EA43057FF4EBAE12E74FEA410247
:1008F00012F5001215D211D56FF47873B3EB625272
:1009000012D94FEAC12343F0004343EA505311F098
:10091000004F23FA02F018BF404270474FF000002A
:10092000704750EA013005D111F0004008BF6FF068
:10093000004070474FF00000704700BF80B483B0A4
:1009400000AF7860094A7B6852F82330012B06D14A
:10095000064A7B68002142F82310012300E00023AF
:1009600018460C37BD4680BC704700BF7C00002095
:1009700080B483B000AF7860044A7B68012142F8FC
:10098000231000BF0C37BD4680BC70477C000020A0
:1009900080B584B000AF78600023FB60A4E0574AC4
:1009A000FB6852F823205649FB6841F82320554A3A
:1009B000FB6852F823205149FB6841F82320FB686B
:1009C000002B09D10221504801F01EFD03461946B3
:1009D0004C4AFB6842F82310FB68012B09D1042123
:1009E000494801F011FD03461946464AFB6842F8A2
:1009F0002310FB68022B09D10821434801F004FDB4
:100A0000034619463F4AFB6842F823103B4AFB68FD
:100A100052F823203A49FB6851F823309A4259D1C1
:100A2000364AFB6852F823203649FB6851F82330D8
:100A30009A424FD1354AFB6852F823203149FB686E
:100A400051F823309A422BD02E4AFB6852F82320CB
:100A50002E49FB6841F823202A4AFB6852F82330CC
:100A6000002B3DD1F868FFF783FF294AFB6852F855
:100A70002330002B0AD1274B1B684FF4FA6292FBFC
:100A8000F3F22549FB6841F8232029E0214B1B683C
:100A9000FA2292FBF3F22049FB6841F823201FE081
:100AA0001D4AFB6852F823305A1E1B49FB6841F867
:100AB0002320194AFB6852F82330002B10D1134A27
:100AC000FB68012142F82310114AFB68012142F81A
:100AD000231005E00E4AFB68002142F8231000E0D5
:100AE00000BFFB680133FB60FB68022B7FF757AF49
:100AF00000BF00BF1037BD4680BD00BF0C00002006
:100B00000000002018000020000801402400002000
:100B100088000020D00000209400002080B483B022
:100B200000AF78603960094B1B683A6892FBF3F2BA
:100B300007497B6841F82320064A7B68002142F878
:100B4000231000BF0C37BD4680BC7047D00000208A
:100B5000A0000020B400002080B483B000AF0023C8
:100B60007B6017E0104A7B6852F82330002B09DDC8
:100B70000D4A7B6852F823305A1E0B497B6841F8B6
:100B8000232004E0094A7B68012142F823107B6896
:100B900001337B607B68042BE4DD00BF00BF0C37B2
:100BA000BD4680BC704700BFA0000020B4000020FC
:100BB00080B483B000AF7860074A7B68002142F8B8
:100BC0002310064A7B68002142F8231000BF0C372F
:100BD000BD4680BC704700BFB4000020A0000020CC
:100BE00080B582B000AF78607B68092B00F280810D
:100BF00001A252F823F000BF210C0008690C000884
:100C0000B10C0008F90C0008410D0008890D00081E
:100C1000D10D0008190E0008610E0008A90E000889
:100C200000220121B44801F006FC00220221B24852
:100C300001F001FC00220421AF4801F0FCFB00227E
:100C40000821AD4801F0F7FB00221021AA4801F06D
:100C5000F2FB00222021A84801F0EDFB01224021F7
:100C6000A54801F0E8FB43E101220121A24801F07F
:100C7000E2FB00220221A04801F0DDFB002204215A
:100C80009D4801F0D8FB012208219B4801F0D3FBCD
:100C900001221021984801F0CEFB01222021964824
:100CA00001F0C9FB01224021934801F0C4FB1FE180
:100CB00000220121904801F0BEFB002202218E4853
:100CC00001F0B9FB012204218B4801F0B4FB0022A2
:100CD0000821894801F0AFFB00221021864801F06D
:100CE000AAFB01222021844801F0A5FB002240211B
:100CF000814801F0A0FBFBE0002201217E4801F0C9
:100D00009AFB002202217C4801F095FB002204217D
:100D1000794801F090FB00220821774801F08BFB15
:100D200001221021744801F086FB01222021724823
:100D300001F081FB002240216F4801F07CFBD7E0ED
:100D4000012201216C4801F076FB002202216A4851
:100D500001F071FB00220421674801F06CFB0122C5
:100D60000821654801F067FB01221021624801F06B
:100D700062FB00222021604801F05DFB002240213F
:100D80005D4801F058FBB3E0002201215A4801F010
:100D900052FB01220221584801F04DFB00220421A0
:100DA000554801F048FB00220821534801F043FB5D
:100DB00001221021504801F03EFB002220214E4824
:100DC00001F039FB002240214B4801F034FB8FE059
:100DD00000220121484801F02EFB01220221464851
:100DE00001F029FB00220421434801F024FB0022EA
:100DF0000821414801F01FFB002210213E4801F06C
:100E00001AFB002220213C4801F015FB0022402162
:100E1000394801F010FB6BE000220121364801F057
:100E20000AFB00220221344801F005FB00220421C4
:100E3000314801F000FB012208212F4801F0FBFAA4
:100E4000012210212C4801F0F6FA012220212A4823
:100E500001F0F1FA01224021274801F0ECFA47E0C5
:100E600000220121244801F0E6FA00220221224852
:100E700001F0E1FA002204211F4801F0DCFA00220F
:100E800008211D4801F0D7FA002210211A4801F06C
:100E9000D2FA00222021184801F0CDFA0022402188
:100EA000154801F0C8FA23E000220121124801F0A0
:100EB000C2FA00220221104801F0BDFA00220421EA
:100EC0000D4801F0B8FA002208210B4801F0B3FAEE
:100ED00001221021084801F0AEFA00222021064824
:100EE00001F0A9FA00224021034801F0A4FA00BF52
:100EF00000BF0837BD4680BD000C014080B582B000
:100F000000AF7860454A7B6852F823301846FFF7F7
:100F100067FE7B68032B7BD801A252F823F000BF49
:100F2000310F0008690F0008A10F0008D90F000851
:100F30003B4B01221A6000224FF48061394801F0D6
:100F40007AFA01224FF40061364801F074FA012266
:100F50004FF48051334801F06EFA01224FF40051F2
:100F6000304801F068FA54E02D4B02221A60012249
:100F70004FF480612B4801F05EFA00224FF40061CB
:100F8000284801F058FA01224FF48051254801F019
:100F900052FA01224FF40051224801F04CFA38E095
:100FA0001F4B03221A6001224FF480611D4801F09B
:100FB00042FA01224FF400611A4801F03CFA002283
:100FC0004FF48051174801F036FA01224FF40051D6
:100FD000144801F030FA1CE0114B00221A60012283
:100FE0004FF480610F4801F026FA01224FF40061AE
:100FF0000C4801F020FA01224FF48051094801F019
:101000001AFA00224FF40051064801F014FA00E0E9
:1010100000BF00BF0837BD4680BD00BF30000020C4
:10102000C80000200008014080B483B000AF7860A1
:101030007B68092B06DC134B00221A60114A7B687F
:10104000536019E07B68092B16DD7B680E4A82FB32
:1010500003129210DB17D31A0A4A136079680A4BFD
:1010600083FB01239A10CB17D21A13469B0013441B
:101070005B00CA1A034B5A6000BF0C37BD4680BCE8
:10108000704700BF300000206766666680B483B09A
:1010900000AF78607B68092B06DC134B00229A6056
:1010A000114A7B68D36019E07B68092B16DD7B68E9
:1010B0000E4A82FB03129210DB17D31A0A4A93607E
:1010C00079680A4B83FB01239A10CB17D21A134677
:1010D0009B0013445B00CA1A034BDA6000BF0C3755
:1010E000BD4680BC704700BF300000206766666662
:1010F00080B500AF144B5B68012B18D1134B1B68F4
:10110000013B124A1360114B1B681846FFF78CFF16
:101110000F4B1B68013B0E4A13600D4B1B681846B2
:10112000FFF7B4FF4FF47A710120FFF7F7FC064B8D
:101130005B68002B05D1054B01221A60044B01228C
:101140001A6000BF80BD00BFB40000204000002036
:101150004400002080B582B000AF78603960386804
:10116000FFF762FF7868FFF791FF00BF0837BD46C1
:1011700080BD000080B500AFC64B1B68013B2A2B29
:1011800000F2048401A252F823F000BF39120008D3
:10119000B91400083F160008F31700088D1900085D
:1011A0008D1900088D1900088D1900088D19000887
:1011B0008912000819130008931300081F1400086F
:1011C0008D1900088D1900088D1900088D19000867
:1011D0008D1900088D1900088D19000827150008C1
:1011E000B3160008671800088D1900088D1900084B
:1011F0008D1900088D1900088D1900088D19000837
:101200008D1900088D1900088D1900088D19000826
:101210008D1900088D1900088D1900088D19000816
:101220008D1900088D1900088D190008B5150008E2
:1012300035170008F3180008964B0A221A60964BDF
:1012400005221A60954B03221A60954B00221A6002
:10125000934B1B681846FFF751FE924B1B684FF4E7
:101260007A7202FB03F319460020FFF757FC4FF494
:101270007A710120FFF752FCFA210220FFF74EFCA1
:101280000320FFF795FC96E300221021864801F029
:10129000D2F801224021844801F0CDF801228021BA
:1012A000814801F0C8F800224FF400717E4801F037
:1012B000C2F8012220217C4801F0BDF87B4B1B685D
:1012C000012B0FD1734B0B221A60744B02221A6050
:1012D000774B1B684FF47A7202FB03F31946002028
:1012E000FFF71CFCFFF704FF704B9B68012B08D134
:1012F0006B4B1B681846FFF701FE64210220FFF7C5
:101300000DFC0020FFF71AFB0346012B40F0408341
:10131000604B02221A603BE300224FF48071624866
:1013200001F089F801224FF400715F4801F083F861
:101330005E4B1B68012B12D1564B0C221A60594B85
:101340001B684FF47A7202FB03F319460020FFF783
:10135000E5FB514B03221A60504B05221A60FFF740
:10136000C7FE524B9B68012B08D14D4B1B6818469A
:10137000FFF7C4FDFA210220FFF7D0FB0020FFF7A2
:10138000DDFA0346012B40F00583424B02221A602E
:1013900000E301221021444801F04DF800224021D1
:1013A000414801F048F8002280213F4801F043F80D
:1013B00001224FF480713C4801F03DF83B4B1B6823
:1013C000012B12D1334B0D221A603A4B1B684FF49C
:1013D0007A7202FB03F319460020FFF79FFB2E4BA6
:1013E00002221A602D4B02221A60FFF781FE2F4B5A
:1013F0009B68012B08D12A4B1B681846FFF77EFD1E
:10140000FA210220FFF78AFB0020FFF797FA034634
:10141000012B40F0C1821F4B02221A60BCE2012264
:101420004021214801F007F8002220211E4801F048
:1014300002F81E4B1B68012B12D1164B0A221A60B0
:101440001B4B1B684FF47A7202FB03F31946002012
:10145000FFF764FB104B05221A60104B03221A6041
:10146000FFF746FE114B9B68012B08D10C4B1B6804
:101470001846FFF743FDFA210220FFF74FFB00203B
:10148000FFF75CFA0346012B40F08882014B0222F1
:101490001A6083E2CC0000204000002044000020BD
:1014A000C80000205000002000080140B4000020C7
:1014B0004C00002048000020B54B15221A60012284
:1014C0001021B44800F0B7FF01222021B14800F0FC
:1014D000B2FF01224021AF4800F0ADFF0122802180
:1014E000AC4800F0A8FF01228021AA4800F0A3FF29
:1014F00001224FF40071A74800F09DFFA64B1B6826
:101500001846FFF7FBFCFA210220FFF707FB4FF418
:10151000FA710320FFF702FB0020FFF749FB0120CF
:10152000FFF746FB47E29D4B1B6819460220FFF779
:1015300011FE9B4BDB68012B0CD11021954800F06C
:1015400092FF8021934800F08EFF4FF4FA71032040
:10155000FFF7E4FA924B9B68012B08D18E4B1B6876
:101560001846FFF7CBFCFA210220FFF7D7FA00203C
:10157000FFF7E4F90346012B02D1854B03221A60E1
:101580000120FFF7DBF90346012B40F00982804B75
:1015900029221A60814B1B68622B05DC7F4B1B687C
:1015A00001337E4A1360FBE17E4B1B6801337B4AAB
:1015B0001360F5E17A4BDB68012B0CD110217548E3
:1015C00000F051FF8021734800F04DFF4FF4FA7195
:1015D0000320FFF7A3FA724B9B68012B08D16E4BD7
:1015E0001B681846FFF78AFCFA210220FFF796FADB
:1015F0000120FFF7A3F90346012B0ED1674B1B68AF
:10160000622B05DC654B1B680133644A136004E000
:10161000644B1B680133614A13600220FFF78EF9A7
:101620000346012B40F0BE81594B15221A605B4BDB
:101630001A685C4B1B68D31A5B4A1360B2E1544BC7
:1016400016221A6001221021524800F0F4FE0022F6
:101650002021504800F0EFFE012240214D4800F0CB
:10166000EAFE012280214B4800F0E5FE00228021A5
:10167000484800F0E0FE01224FF40071454800F0B8
:10168000DAFE454B1B681846FFF738FCFA210220AA
:10169000FFF744FA4FF4FA710320FFF73FFA3E4B8D
:1016A00000221A600020FFF783FA0120FFF780FA7A
:1016B00081E13B4BDB68012B0ED100222021354814
:1016C00000F0B9FE00228021324800F0B4FE4FF451
:1016D000FA710320FFF722FA314B9B68012B08D1E6
:1016E0002D4B1B681846FFF709FCFA210220FFF773
:1016F00015FA0020FFF722F90346012B02D1244BF3
:1017000004221A600120FFF719F90346012B40F06B
:101710004B811F4B2A221A60224B1B68042B03DDCE
:10172000204B01221A603FE11E4B1B6801331D4A0A
:10173000136039E11A4BDB68012B0ED10022202106
:10174000144800F078FE00228021124800F073FE59
:101750004FF4FA710320FFF7E1F9114B9B68012B5D
:1017600008D10D4B1B681846FFF7C8FBFA21022071
:10177000FFF7D4F90120FFF7E1F80346012B1AD156
:10178000084B1B68042B11DD064B01221A6012E086
:10179000CC00002000080140C800002048000020C4
:1017A000B40000204C00002050000020834B1B6838
:1017B0000133824A13600220FFF7C0F80346012B71
:1017C00040F0F4807E4B16221A607E4B1A687B4BE9
:1017D0001B689A4205DC794B1B680133794A136018
:1017E000E4E0784B1A68754B1B68D31A764A13608D
:1017F000DCE0734B17221A6001221021734800F0BD
:101800001AFE01222021714800F015FE002240211D
:101810006E4800F010FE012280216C4800F00BFEA3
:1018200001228021694800F006FE00224FF4007179
:10183000664800F000FE664B1B681846FFF75EFB2B
:10184000FA210220FFF76AF94FF4FA710320FFF73B
:1018500065F95F4B00221A600020FFF7A9F901200B
:10186000FFF7A6F9A7E05B4BDB68012B0FD1002245
:101870004021564800F0DFFD00224FF4007153482C
:1018800000F0D9FD4FF4FA710320FFF747F9514BEF
:101890009B68012B08D14E4B1B681846FFF72EFBA7
:1018A000FA210220FFF73AF90020FFF747F8034634
:1018B000012B02D1424B01221A600120FFF73EF8B2
:1018C0000346012B74D13E4B2B221A603D4B1A6804
:1018D0003A4B1B68D21A3C4B1B689A4203DC3A4BCA
:1018E00001221A6064E0384B1B680133364A1360EA
:1018F0005EE0384BDB68012B0FD1002240213348DA
:1019000000F099FD00224FF40071304800F093FD83
:101910004FF4FA710320FFF701F92E4B9B68012B5E
:101920000BD12B4B1B681846FFF7E8FA284B002217
:101930001A60FA210220FFF7F1F80120FEF7FEFFFE
:101940000346012B11D11F4B1A681C4B1B68D21A7E
:101950001D4B1B689A4203DC1B4B01221A6004E0FA
:10196000194B1B680133184A13600220FEF7E6FF8B
:101970000346012B1ED1124B17221A60124B1A6814
:101980000E4B1B6813440F4A136013E000BF12E0B4
:1019900000BF10E000BF0EE000BF0CE000BF0AE097
:1019A00000BF08E000BF06E000BF04E000BF02E0A7
:1019B00000BF00E000BF00BF80BD00BF4C000020A2
:1019C000CC0000204800002050000020000801400A
:1019D000C8000020B400002080B500AF00F02AFA53
:1019E00000F038F800F074F800F0FEF8164801F046
:1019F0007FF901221021154800F01DFD0122402130
:101A0000124800F018FD01222021104800F013FDBB
:101A1000012280210D4800F00EFD01224FF40071DB
:101A20000A4800F008FD01224FF48071074800F0D9
:101A300002FD074B01221A6001210020FFF76EF81A
:101A4000FFF798FBFCE700BFD4000020000801402E
:101A5000CC00002080B590B000AF07F11803282219
:101A60000021184601F0F4FC3B1D00221A605A6068
:101A70009A60DA601A610223BB610123BB62102302
:101A8000FB6200237B6307F11803184600F004FD96
:101A90000346002B01D000F013F90F237B600023D5
:101AA000BB600023FB6000233B6100237B613B1D87
:101AB0000021184600F070FF0346002B01D000F013
:101AC000FFF800BF4037BD4680BD000000000000A9
:101AD000B0B586B000AF07F1080300221A605A6063
:101AE0009A60DA603B4600221A605A603A4B4FF027
:101AF00080421A60384B41F63F725A60364B0022E2
:101B00009A60354B0922DA60334B00221A61324B5E
:101B100000229A61304801F09BF80346002B01D067
:101B200000F0CEF84FF48053BB6007F1080319466C
:101B3000294801F019FA0346002B01D000F0C0F843
:101B400000233B6000237B603B461946224801F09E
:101B5000F1FB0346002B01D000F0B2F81E4B5B688E
:101B600001331846FEF736FC02460B4618A1D1E9B0
:101B70000001FEF7D3FD02460B4614461D46164BE8
:101B8000DB6801331846FEF725FC02460B4620466B
:101B90002946FEF7C3FD02460B464FF000000F49F1
:101BA000FEF7BCFD02460B46104619464FF00002F8
:101BB0000B4BFEF789FC02460B4610461946FEF712
:101BC00095FE0346074A136000BF1837BD46B0BDF7
:101BD0000000000080845E41D40000200000F03F3F
:101BE00000408F40D000002080B586B000AF07F1E4
:101BF000080300221A605A609A60DA60274B9B69DA
:101C0000264A43F004039361244B9B6903F00403C9
:101C10007B607B68214B9B69204A43F008039361FA
:101C20001E4B9B6903F008033B603B68002243F6B0
:101C3000F0711B4800F0FFFB00227F21194800F0E3
:101C4000FAFB0E23BB600023FB6001233B6107F11D
:101C500008031946124800F05DFA43F6F073BB60C2
:101C60000123FB6000233B6102237B6107F1080332
:101C700019460B4800F04EFA7F23BB600123FB603E
:101C800000233B6102237B6107F1080319460548E5
:101C900000F040FA00BF1837BD4680BD001002407A
:101CA00000080140000C014080B582B000AF7860B0
:101CB000FEF752FFFEF76CFE00BF0837BD4680BD41
:101CC00080B400AF72B600BFFEE7000080B485B0FC
:101CD00000AF154B9B69144A43F001039361124B0B
:101CE0009B6903F00103BB60BB680F4BDB690E4AC5
:101CF00043F08053D3610C4BDB6903F080537B606E
:101D00007B680A4B5B68FB60FB6823F0E063FB6069
:101D1000FB6843F08063FB60044AFB68536000BFCC
:101D20001437BD4680BC70470010024000000140DF
:101D300080B584B000AF78607B681B68B3F1804FDA
:101D400013D10C4BDB690B4A43F00103D361094B00
:101D5000DB6903F00103FB60FB68002200211C200B
:101D600000F0A1F91C2000F0BAF900BF1037BD4601
:101D700080BD00BF0010024080B400AFFEE780B419
:101D800000AFFEE780B400AFFEE780B400AFFEE72F
:101D900080B400AFFEE780B400AF00BFBD4680BC9A
:101DA000704780B400AF00BFBD4680BC704780B4B0
:101DB00000AF00BFBD4680BC704780B500AF00F0EB
:101DC0007FF800BF80BD000080B500AF024800F082
:101DD000DBFF00BF80BD00BFD400002080B400AF97
:101DE00000BFBD4680BC7047FFF7F8FF0B480C49A9
:101DF0000C4A002302E0D458C4500433C4188C4267
:101E0000F9D3094A094C002301E013600432A242CD
:101E1000FBD301F0F9FAFFF7DFFD70470000002067
:101E200060000020A4340008600000202001002091
:101E3000FEE7000080B500AF084B1B68074A43F07F
:101E400010031360032000F023F90F2000F008F8BE
:101E5000FFF73CFF0023184680BD00BF0020024072
:101E600080B582B000AF7860124B1A68124B1B78B5
:101E700019464FF47A73B3FBF1F3B2FBF3F3184650
:101E800000F03BF90346002B01D001230EE07B68F4
:101E90000F2B0AD8002279684FF0FF3000F003F9C9
:101EA000064A7B681360002300E0012318460837C8
:101EB000BD4680BD540000205C000020580000207A
:101EC00080B400AF054B1B781A46054B1B681344C2
:101ED000034A136000BFBD4680BC70475C00002011
:101EE0001C01002080B400AF024B1B681846BD46A1
:101EF00080BC70471C01002080B485B000AF7860C2
:101F00007B6803F00703FB600C4BDB68BB60BA68BF
:101F10004FF6FF031340BB60FB681A02BB68134314
:101F200043F0BF6343F40033BB60044ABB68D36033
:101F300000BF1437BD4680BC704700BF00ED00E015
:101F400080B400AF044BDB681B0A03F0070318469C
:101F5000BD4680BC704700BF00ED00E080B483B098
:101F600000AF0346FB7197F90730002B0BDBFB79C1
:101F700003F01F02064997F907305B09012000FAB8
:101F800002F241F8232000BF0C37BD4680BC7047E9
:101F900000E100E080B483B000AF03463960FB711C
:101FA00097F90730002B0ADB3B68DAB20C4997F946
:101FB00007301201D2B20B4483F800230AE03B68D9
:101FC000DAB20849FB7903F00F03043B1201D2B2E5
:101FD0000B441A7600BF0C37BD4680BC704700BF6B
:101FE00000E100E000ED00E080B489B000AFF860EF
:101FF000B9607A60FB6803F00703FB61FB69C3F11A
:102000000703042B28BF0423BB61FB690433062BA1
:1020100002D9FB69033B00E000237B614FF0FF32F4
:10202000BB6902FA03F3DA43BB681A407B699A4042
:102030004FF0FF317B6901FA03F3D9437B680B4012
:10204000134318462437BD4680BC704780B582B024
:1020500000AF78607B68013BB3F1807F01D301233F
:102060000FE00A4A7B68013B53600F214FF0FF30BD
:10207000FFF790FF054B00229A60044B07221A607D
:10208000002318460837BD4680BD00BF10E000E0C1
:1020900080B582B000AF78607868FFF72DFF00BF91
:1020A0000837BD4680BD80B586B000AF0346B96035
:1020B0007A60FB7300237B61FFF742FF78617A68E7
:1020C000B9687869FFF790FF024697F90F3011461B
:1020D0001846FFF75FFF00BF1837BD4680BD80B5CB
:1020E00082B000AF0346FB7197F907301846FFF73F
:1020F00035FF00BF0837BD4680BD80B582B000AF58
:1021000078607868FFF7A2FF034618460837BD4697
:1021100080BD000080B48BB000AF786039600023D0
:102120007B6200233B6248E101227B6A02FA03F3EF
:10213000FB613B681B68FA691340BB61BA69FB69C4
:102140009A4240F037813B685B68A34A93425ED075
:10215000A14A934275D8A14A934258D09F4A9342CC
:102160006FD89F4A934252D09D4A934269D89D4A64
:1021700093424CD09B4A934263D89B4A934246D0A9
:10218000994A93425DD8122B2AD8122B59D801A212
:1021900052F823F00F220008E9210008FB21000873
:1021A0003D22000843220008432200084322000881
:1021B000432200084322000843220008432200086B
:1021C000432200084322000843220008432200085B
:1021D0004322000843220008F121000805220008DC
:1021E000824A934213D02CE03B68DB683B6229E0D3
:1021F0003B68DB6804333B6224E03B68DB68083300
:102200003B621FE03B68DB680C333B621AE03B68D3
:102210009B68002B02D104233B6213E03B689B6860
:10222000012B05D108233B627B68FA691A6109E03A
:1022300008233B627B68FA695A6103E000233B6232
:1022400000E000BFBB69FF2B01D87B6801E07B6821
:1022500004337B61BB69FF2B02D87B6A9B0002E0E1
:102260007B6A083B9B003B617B691A680F213B69D5
:1022700001FA03F3DB431A40396A3B6901FA03F3BD
:102280001A437B691A603B685B6803F08053002B3C
:1022900000F09080564B9B69554A43F001039361CF
:1022A000534B9B6903F00103BB60BB68514A7B6AD7
:1022B0009B08023352F82330FB607B6A03F0030370
:1022C0009B000F2202FA03F3DB43FA681340FB6022
:1022D0007B68494A93420DD07B68484A934207D0B5
:1022E0007B68474A934201D1022304E0032302E0C2
:1022F000012300E000237A6A02F003029200934077
:10230000FA681343FB603B497B6A9B080233FA6817
:1023100041F823203B685B6803F48013002B06D050
:10232000384B9A683749BB6913438B6006E0354BDD
:102330009A68BB69DB43334913408B603B685B6839
:1023400003F40013002B06D02E4BDA682D49BB692D
:102350001343CB6006E02B4BDA68BB69DB432949AA
:102360001340CB603B685B6803F40033002B06D05E
:10237000244B5A682349BB6913434B6006E0214B49
:102380005A68BB69DB431F4913404B603B685B687D
:1023900003F48033002B06D01A4B1A681949BB6925
:1023A00013430B6006E0174B1A68BB69DB43154902
:1023B00013400B607B6A01337B623B681A687B6A5F
:1023C00022FA03F3002B7FF4AFAE00BF00BF2C371F
:1023D000BD4680BC704700BF0000321000003110C5
:1023E0000000221000002110000012100000111047
:1023F000001002400000014000080140000C0140B4
:10240000001001400004014080B485B000AF786046
:102410000B467B807B689A687B881340002B02D038
:102420000123FB7301E00023FB73FB7B1846143789
:10243000BD4680BC704780B483B000AF78600B4667
:102440007B8013467B707B78002B03D07A887B6877
:102450001A6103E07B881A047B681A6100BF0C379D
:10246000BD4680BC704780B485B000AF78600B4635
:102470007B807B68DB68FB607A88FB6813401A040A
:10248000FB68D9437B880B401A437B681A6100BF05
:102490001437BD4680BC704780B586B000AF786009
:1024A0007B68002B01D101236CE27B681B6803F081
:1024B0000103002B00F08780924B5B6803F00C0354
:1024C000042B0CD08F4B5B6803F00C03082B12D14C
:1024D0008C4B5B6803F48033B3F5803F0BD1894BA1
:1024E0001B6803F40033002B6CD07B685B68002B07
:1024F00068D1012346E27B685B68B3F5803F06D173
:10250000804B1B687F4A43F4803313602EE07B6866
:102510005B68002B0CD17B4B1B687A4A23F4803319
:102520001360784B1B68774A23F4802313601DE007
:102530007B685B68B3F5A02F0CD1724B1B68714AA6
:1025400043F4802313606F4B1B686E4A43F480335F
:1025500013600BE06B4B1B686A4A23F480331360F3
:10256000684B1B68674A23F4802313607B685B68B1
:10257000002B13D0FFF7B6FC386108E0FFF7B2FC80
:1025800002463B69D31A642B01D90323FAE15D4B60
:102590001B6803F40033002BF0D014E0FFF7A2FC1B
:1025A000386108E0FFF79EFC02463B69D31A642BB2
:1025B00001D90323E6E1534B1B6803F40033002BDE
:1025C000F0D100E000BF7B681B6803F00203002B22
:1025D00063D04C4B5B6803F00C03002B0BD0494BD2
:1025E0005B6803F00C03082B1CD1464B5B6803F4BB
:1025F0008033002B16D1434B1B6803F00203002BE2
:1026000005D07B681B69012B01D00123BAE13D4B4A
:102610001B6823F0F8027B685B69DB0039491343D0
:102620000B603AE07B681B69002B20D0364B0122FF
:102630001A60FFF757FC386108E0FFF753FC0246C9
:102640003B69D31A022B01D903239BE12D4B1B6855
:1026500003F00203002BF0D02A4B1B6823F0F80292
:102660007B685B69DB00274913430B6015E0264B51
:1026700000221A60FFF736FC386108E0FFF732FCF1
:1026800002463B69D31A022B01D903237AE11D4B81
:102690001B6803F00203002BF0D17B681B6803F07A
:1026A0000803002B3AD07B689B69002B19D0174B8D
:1026B00001221A60FFF716FC386108E0FFF712FCF0
:1026C00002463B69D31A022B01D903235AE10D4B71
:1026D0005B6A03F00203002BF0D0012000F09AFAAD
:1026E0001CE00A4B00221A60FFF7FCFB38610FE088
:1026F000FFF7F8FB02463B69D31A022B08D90323E4
:1027000040E100BF0010024000004242800442420B
:102710009E4B5B6A03F00203002BE9D17B681B68C8
:1027200003F00403002B00F0A6800023FB75974BF9
:10273000DB6903F08053002B0DD1944BDB69934A86
:1027400043F08053D361914BDB6903F08053BB604E
:10275000BB680123FB758E4B1B6803F48073002B51
:1027600018D18B4B1B688A4A43F480731360FFF7C0
:10277000B9FB386108E0FFF7B5FB02463B69D31AA5
:10278000642B01D90323FDE0814B1B6803F48073A4
:10279000002BF0D07B68DB68012B06D17B4B1B6ADA
:1027A0007A4A43F0010313622DE07B68DB68002B5B
:1027B0000CD1764B1B6A754A23F001031362734BED
:1027C0001B6A724A23F0040313621CE07B68DB6817
:1027D000052B0CD16D4B1B6A6C4A43F0040313624A
:1027E0006A4B1B6A694A43F0010313620BE0674BB3
:1027F0001B6A664A23F001031362644B1B6A634A37
:1028000023F0040313627B68DB68002B15D0FFF70D
:1028100069FB38610AE0FFF765FB02463B69D31AA2
:1028200041F28832934201D90323ABE0574B1B6A34
:1028300003F00203002BEED014E0FFF753FB3861E6
:102840000AE0FFF74FFB02463B69D31A41F2883298
:10285000934201D9032395E04C4B1B6A03F002031A
:10286000002BEED1FB7D012B05D1484BDB69474A9C
:1028700023F08053D3617B68DB69002B00F08180FB
:10288000424B5B6803F00C03082B61D07B68DB696B
:10289000022B46D13F4B00221A60FFF723FB386121
:1028A00008E0FFF71FFB02463B69D31A022B01D950
:1028B000032367E0354B1B6803F00073002BF0D156
:1028C0007B681B6AB3F5803F08D1304B5B6823F40B
:1028D00000327B689B682D4913434B602B4B5B6830
:1028E00023F474127B68196A7B685B6A0B4327497F
:1028F00013434B60274B01221A60FFF7F3FA38614C
:1029000008E0FFF7EFFA02463B69D31A022B01D920
:10291000032337E01D4B1B6803F00073002BF0D03E
:102920002FE01C4B00221A60FFF7DCFA386108E048
:10293000FFF7D8FA02463B69D31A022B01D90323C9
:1029400020E0124B1B6803F00073002BF0D118E05D
:102950007B68DB69012B01D1012313E00B4B5B6822
:10296000FB60FB6803F480327B681B6A9A4206D1E5
:10297000FB6803F470127B685B6A9A4201D0012302
:1029800000E0002318461837BD4680BD0010024005
:10299000007000406000424280B584B000AF7860B3
:1029A00039607B68002B01D10123D0E06A4B1B68A2
:1029B00003F007033A689A4210D9674B1B6823F06B
:1029C000070265493B6813430B60634B1B6803F0C8
:1029D00007033A689A4201D00123B8E07B681B687C
:1029E00003F00203002B20D07B681B6803F0040374
:1029F000002B05D0594B5B68584A43F4E0635360A1
:102A00007B681B6803F00803002B05D0534B5B6801
:102A1000524A43F460535360504B5B6823F0F0021A
:102A20007B689B684D4913434B607B681B6803F0D0
:102A30000103002B40D07B685B68012B07D1474B1B
:102A40001B6803F40033002B15D101237FE07B6862
:102A50005B68022B07D1414B1B6803F00073002B0E
:102A600009D1012373E03D4B1B6803F00203002BE7
:102A700001D101236BE0394B5B6823F003027B68D3
:102A80005B68364913434B60FFF72CFAF8600AE0A5
:102A9000FFF728FA0246FB68D31A41F288329342C4
:102AA00001D9032353E02D4B5B6803F00C027B68D4
:102AB0005B689B009A42EBD1274B1B6803F007032E
:102AC0003A689A4210D2244B1B6823F0070222492D
:102AD0003B6813430B60204B1B6803F007033A6805
:102AE0009A4201D0012332E07B681B6803F00403A3
:102AF000002B08D0194B5B6823F4E0627B68DB682D
:102B0000164913434B607B681B6803F00803002BD6
:102B100009D0124B5B6823F460527B681B69DB00B1
:102B20000E4913434B6000F021F802460B4B5B68E3
:102B30001B0903F00F030A49CB5C22FA03F3094A8D
:102B40001360094B1B681846FFF78AF900231846E3
:102B50001037BD4680BD00BF00200240001002407B
:102B600078340008540000205800002080B487B05A
:102B700000AF0023FB600023BB6000237B610023C8
:102B80007B6000233B611E4B5B68FB60FB6803F0CE
:102B90000C03042B02D0082B03D027E0194B3B6118
:102BA00027E0FB689B0C03F00F03174AD35C7B60A4
:102BB000FB6803F48033002B10D0114B5B685B0C77
:102BC00003F00103114AD35CBB607B680D4A02FB32
:102BD00003F2BB68B2FBF3F37B6104E07B680C4A51
:102BE00002FB03F37B617B693B6102E0054B3B61C8
:102BF00000BF3B6918461C37BD4680BC704700BF0C
:102C00000010024000127A0088340008983400084E
:102C100000093D0080B485B000AF78600A4B1B68A6
:102C20000A4AA2FB03235B0A7A6802FB03F3FB60F8
:102C300000BFFB685A1EFA60002BF9D100BF00BF2D
:102C40001437BD4680BC704754000020D34D62103D
:102C500080B582B000AF78607B68002B01D1012382
:102C600041E07B6893F83D30DBB2002B06D17B68F6
:102C7000002283F83C207868FFF75AF87B6802222C
:102C800083F83D207B681A687B6804331946104638
:102C900000F056FA7B68012283F846207B68012207
:102CA00083F83E207B68012283F83F207B68012265
:102CB00083F840207B68012283F841207B68012251
:102CC00083F842207B68012283F843207B6801223D
:102CD00083F844207B68012283F845207B68012229
:102CE00083F83D20002318460837BD4680BD00000C
:102CF00080B485B000AF78607B6893F83D30DBB27C
:102D0000012B01D0012335E07B68022283F83D20AE
:102D10007B681B68DA687B681B6842F00102DA6036
:102D20007B681B68164A934209D07B681B68B3F125
:102D3000804F04D07B681B68124A934211D17B6894
:102D40001B689B6803F00703FB60FB68062B10D031
:102D50007B681B681A687B681B6842F001021A6076
:102D600007E07B681B681A687B681B6842F00102F9
:102D70001A60002318461437BD4680BC704700BF58
:102D8000002C01400004004080B584B000AF7860A2
:102D90007B681B68DB68FB607B681B681B69BB602A
:102DA000BB6803F00203002B20D0FB6803F0020392
:102DB000002B1BD07B681B686FF002021A617B68D6
:102DC00001221A777B681B689B6903F00303002BC1
:102DD00003D0786800F098F905E0786800F08BF986
:102DE000786800F09AF97B6800221A77BB6803F0D4
:102DF0000403002B20D0FB6803F00403002B1BD03E
:102E00007B681B686FF004021A617B6802221A77E4
:102E10007B681B689B6903F44073002B03D07868C0
:102E200000F072F905E0786800F065F9786800F064
:102E300074F97B6800221A77BB6803F00803002B43
:102E400020D0FB6803F00803002B1BD07B681B68B5
:102E50006FF008021A617B6804221A777B681B688E
:102E6000DB6903F00303002B03D0786800F04CF912
:102E700005E0786800F03FF9786800F04EF97B686B
:102E800000221A77BB6803F01003002B20D0FB68E8
:102E900003F01003002B1BD07B681B686FF010023F
:102EA0001A617B6808221A777B681B68DB6903F468
:102EB0004073002B03D0786800F026F905E07868AD
:102EC00000F019F9786800F028F97B6800221A7779
:102ED000BB6803F00103002B0CD0FB6803F0010377
:102EE000002B07D07B681B686FF001021A617868BD
:102EF000FEF7DAFEBB6803F08003002B0CD0FB6802
:102F000003F08003002B07D07B681B686FF0800202
:102F10001A61786800F06FFABB6803F04003002B79
:102F20000CD0FB6803F04003002B07D07B681B68C4
:102F30006FF040021A61786800F0F8F8BB6803F09F
:102F40002003002B0CD0FB6803F02003002B07D0DC
:102F50007B681B686FF020021A61786800F042FA03
:102F600000BF1037BD4680BD80B584B000AF78602B
:102F700039600023FB737B6893F83C30012B01D14F
:102F80000223B4E07B68012283F83C207B680222A4
:102F900083F83D207B681B689B68BB60BB6823F09F
:102FA0007703BB60BB6823F47F43BB607B681B680F
:102FB000BA689A603B681B68B3F5005F3ED0B3F512
:102FC000005F00F28780B3F5805F00F08680B3F584
:102FD000805F7FD8702B1AD0702B7BD8602B50D09D
:102FE000602B77D8502B3CD0502B73D8402B58D027
:102FF000402B6FD8302B64D0302B6BD8202B60D077
:10300000202B67D8002B5CD0102B5AD062E07B6855
:1030100018683B6899683B685A683B68DB6800F051
:103020006AF97B681B689B68BB60BB6843F07703E9
:10303000BB607B681B68BA689A604FE07B68186861
:103040003B6899683B685A683B68DB6800F053F955
:103050007B681B689A687B681B6842F480429A60B0
:103060003CE07B6818683B6859683B68DB681A4637
:1030700000F0CAF87B681B685021184600F021F95F
:103080002CE07B6818683B6859683B68DB681A4627
:1030900000F0E8F87B681B686021184600F011F921
:1030A0001CE07B6818683B6859683B68DB681A4617
:1030B00000F0AAF87B681B684021184600F001F96F
:1030C0000CE07B681A683B681B681946104600F0E4
:1030D000F8F803E00123FB7300E000BF7B680122E6
:1030E00083F83D207B68002283F83C20FB7B184658
:1030F0001037BD4680BD80B483B000AF786000BF9C
:103100000C37BD4680BC704780B483B000AF786098
:1031100000BF0C37BD4680BC704780B483B000AFA1
:10312000786000BF0C37BD4680BC704780B483B068
:1031300000AF786000BF0C37BD4680BC7047000010
:1031400080B485B000AF786039607B681B68FB6035
:103150007B682B4A934207D07B68B3F1804F03D042
:103160007B68284A934208D1FB6823F07003FB6018
:103170003B685B68FA681343FB607B68204A9342B4
:1031800007D07B68B3F1804F03D07B681D4A934220
:1031900008D1FB6823F44073FB603B68DB68FA6886
:1031A0001343FB60FB6823F080023B685B691343B9
:1031B000FB607B68FA681A603B689A687B68DA6231
:1031C0003B681A687B689A627B680D4A934203D118
:1031D0003B681A697B681A637B6801225A617B68C5
:1031E0001B6903F00103002B05D07B681B6923F0EA
:1031F00001027B681A6100BF1437BD4680BC70476E
:10320000002C01400004004080B487B000AFF8609B
:10321000B9607A60FB681B6A7B61FB681B6A23F0FC
:103220000102FB681A62FB689B693B613B6923F002
:10323000F0033B617B681B013A6913433B617B6987
:1032400023F00A037B617A69BB6813437B61FB68E7
:103250003A699A61FB687A691A6200BF1C37BD46F9
:1032600080BC704780B487B000AFF860B9607A6006
:10327000FB681B6A7B61FB681B6A23F01002FB681A
:103280001A62FB689B693B613B6923F470433B61B5
:103290007B681B033A6913433B617B6923F0A003FE
:1032A0007B61BB681B017A6913437B61FB683A69E8
:1032B0009A61FB687A691A6200BF1C37BD4680BC00
:1032C000704780B485B000AF786039607B689B68D8
:1032D000FB60FB6823F07003FB603A68FB681343F4
:1032E00043F00703FB607B68FA689A6000BF1437FD
:1032F000BD4680BC704780B487B000AFF860B9604D
:103300007A603B60FB689B687B617B6923F47F4349
:103310007B613B681A027B681A43BB6813437A6976
:1033200013437B61FB687A699A6000BF1C37BD4616
:1033300080BC704780B485B000AF786039607B682E
:1033400093F83C30012B01D1022341E07B6801223C
:1033500083F83C207B68022283F83D207B681B6851
:103360005B68FB607B681B689B68BB60FB6823F045
:103370007003FB603B681B68FA681343FB607B6863
:103380001B68FA685A607B681B68144A934209D02C
:103390007B681B68B3F1804F04D07B681B68104AC0
:1033A00093420CD1BB6823F08003BB603B685B6831
:1033B000BA681343BB607B681B68BA689A607B6815
:1033C000012283F83D207B68002283F83C20002303
:1033D00018461437BD4680BC704700BF002C014022
:1033E0000004004080B483B000AF786000BF0C37A9
:1033F000BD4680BC704780B483B000AF786000BF2A
:103400000C37BD4680BC704770B500260C4D0D4C86
:10341000641BA410A64209D100F022F800260A4D30
:103420000A4C641BA410A64205D170BD55F8043B9C
:1034300098470136EEE755F8043B98470136F2E726
:103440009C3400089C3400089C340008A034000818
:1034500003460244934200D1704703F8011BF9E789
:10346000F8B500BFF8BC08BC9E467047F8B500BF71
:08347000F8BC08BC9E46704741
:10347800000000000000000001020304060708091C
:1034880002030405060708090A0B0C0D0E0F10109D
:04349800010200002D
:04349C0035010008EE
:0434A000110100080E
:1034A4000100000000000000000000000100000016
:1034B4000000000000000000010000000000000007
:1034C40000000000010000000000000000000000F7
:1034D40001000000020000000300000004000000DE
:1034E40001000000010000000500000002000000CF
:1034F4000300000000127A00100000000100000028
:0400000508001DE9E9
:00000001FF
